:020000040800F2
:10000000101200204501000867C90008291F0008D8
:1000100065C900085B03000801D10008000000006A
:100020000000000000000000000000006FC9000890
:1000300093030008000000006DC9000871C90008A2
:100040005F0100085F0100085F0100085F01000810
:100050005F0100085F0100086504000879040008DA
:100060008D040008A10400085F0100085F0100087A
:100070005F0100085F0100085F0100085D030008E0
:100080005F0100085F0100085F0100085F010008D0
:100090005F0100085F0100085F0100085F010008C0
:1000A0005F0100085F0100085F0100085F010008B0
:1000B0005F010008D9C900085F0100085F0100085E
:1000C0005F0100085F0100085F0100085F01000890
:1000D0005F010008F5D000085F0100085F0100081B
:1000E0005F0100085F0100085F0100085F01000870
:1000F0005F0100085F0100085F0100085F01000860
:100100005F0100085F0100085F0100085F0100084F
:100110005F0100085F010008F9C900085F010008DD
:100120005F0100085F0100085F0100085F0100082F
:10013000DFF80CD000F09EF80048004729D50008F1
:10014000101200200648804706480047FEE7FEE7F9
:10015000FEE7FEE7FEE7FEE7FEE7FEE7FEE7FEE777
:10016000D5C9000831010008D2B201E000F8012B26
:10017000491EFBD270470022F6E710B513460A4627
:1001800004461946FFF7F0FF204610BD10B504469F
:1001900004E00B7800F8013B03B1491C521EF8D271
:1001A000204610BD30B504460020034600E05B1C2D
:1001B000934203D2E05CCD5C401BF8D030BD70B5FB
:1001C00006460CF0D3FF046805460A22002130469B
:1001D00000F018F82C6070BD30B50B4601460020C9
:1001E0002022012409E021FA02F59D4205D303FAF9
:1001F00002F5491B04FA02F52844151EA2F101027A
:10020000F1DC30BD2DE9F04791460F4680460446AB
:10021000002614F8015B2DB100F03EF80068405D47
:10022000C007F6D12B2D02D02D2D18D0641E4A46C2
:100230003946204600F034F827B13968A14201D18F
:10024000C7F8008071054FF002040BD5404200282A
:1002500003DD0CF08BFF0460A007BDE8F08746F4D7
:100260008066E4E70028F8DA0CF080FF04606FF0A5
:100270000040F2E7064C074D06E0E06840F001035D
:1002800094E8070098471034AC42F6D3FFF754FFC8
:1002900024F5000844F500080048704720F50008E0
:1002A0002DE9F05F82460078002715468B460AF15B
:1002B0000104B946302801D09DB113E014F8010BB8
:1002C0000127782803D0582801D045B10AE00DB1A4
:1002D000102D07D10027102514F8010B02E0082586
:1002E00000E00A250026B0460EE005FB080005FBED
:1002F00006F1012701EB10461FFA80F8B6F5803FA2
:1003000000D3B94614F8010B294600F018F800286C
:10031000EBDABBF1000F05D00FB1641E00E05446CC
:10032000CBF80040B9F1000F06D00CF01FFF0221FE
:100330000160C81EBDE8F09F48EA0640FAE73A2887
:1003400000D2303820F02002412A01D3A2F1370038
:10035000884201D34FF0FF307047FEE7014800F0BC
:1003600083B90000C801002030B590F84050012446
:10037000AC40C56B6C60046863604368102B036815
:1003800003D099600068C26030BD9A600068C160A7
:1003900030BD70472DE9FC5F074600251446032059
:1003A0000E46A0EB440858E0A6EB0509A7EB040AAB
:1003B0001FFA89F11FFA8AF001F0C2FD3819019085
:1003C0001FFA89F180B201F0BBFD301981B2A7EBB1
:1003D000050B00901FFA8BF001F0B2FD1FFA89F1B6
:1003E0001FFA8AF001F0ACFDA6EB04091FFA89F1AF
:1003F0001FFA8BF001F0A4FD019806EB050B1FFA24
:100400008BF180B201F09CFD1FFA89F107EB050921
:100410001FFA89F001F094FD009881B21FFA89F06B
:1004200001F08EFD1FFA8BF11FFA8AF001F088FDB2
:100430006D1CB8F1000F04DA08EB850000F1060826
:1004400005E0291B08EB810000F10A08641E301941
:1004500081B2781980B201F073FDA542A4DDBDE838
:10046000FC9F000010B5012000F0CAFA01490120EC
:10047000087010BD1400002010B5022000F0C0FA72
:1004800001490220087010BD1400002010B504209E
:1004900000F0B6FA01490320087010BD14000020D6
:1004A00010B5082000F0ACFA01490420087010BD16
:1004B0001400002072B6FEE70B4A10B50B48146812
:1004C000002341783C2C07D002463C29127807D003
:1004D000182A00D1037010BD491C4170136010BD73
:1004E000521C0270437010BD180000200000002054
:1004F00010B590F821100022022905D00421816353
:1005000080F82020012010BD01680B6823F00E0345
:100510000B6001680B6823F001030B6090F840301A
:10052000C46B012101FA03F3636080F8211080F8A5
:100530002020104610BD00002DE9F05F90F821103A
:100540000024022903D004218163012485E001688D
:100550000A6822F00E020A6001680A6822F00102AD
:100560000A603F4E3E4FB215DFF8F4C0DFF8F0905E
:10057000DFF8ECA0DFF8E8B0DFF8E4E00168783FEE
:1005800013011502ACF1640CA9F15009AAF13C0A5F
:10059000ABF1280BAEF1140E4FF48018B14227D9FD
:1005A000B9420ED0614512D049451DD0514518D0F1
:1005B000594518D0714501D1424615E0294EB14246
:1005C00001D1012210E0274E1436B14201D1102290
:1005D0000AE0244E2836B14206D0224A3C329142EB
:1005E00001D11A4600E02A461E49091F0A602BE085
:1005F000B94213D0614517D0494522D051451DD08D
:1006000059451DD0714501D142461AE0B14202D18F
:100610004FF0807215E0134EB14201D1012210E07B
:10062000104E1436B14201D110220AE00D4E283688
:10063000B14206D00B4A3C32914201D11A4600E049
:100640002A46074980394A60012180F8211000219B
:1006500080F82010416B01B188472046BDE8F09F2B
:1006600080000240080402402DE9F05FC16B0A6877
:1006700001680B68046C4FF0040808FA04F8844D14
:10068000844E854FDFF814C2DFF81492DFF814A20D
:10069000DFF814B2DFF814E218EA020F65D05FEA5F
:1006A000437862D50A68920603D40A6822F00402ED
:1006B0000A60DFF8F0814FF48062016808F11408E5
:1006C00013011402414524D9A9420DD0B1420FD0E3
:1006D000B9421AD0614515D0494515D0514501D1CF
:1006E000120312E0594501D104220EE0714501D1F7
:1006F00040220AE06D4D1435A94206D06B4A2832DB
:10070000914201D11A4600E022466749091F0A605A
:1007100029E0A94213D0B14215D0B94220D0614599
:100720001BD049451BD0514502D14FF4800217E040
:10073000414502D14FF0806212E0594501D10422B7
:100740000EE0714501D140220AE0584D1435A9420E
:1007500006D0564A2832914201D11A4600E022467C
:100760004B4908394A60C16A71E04FF0020808FA43
:1007700004F818EA020F70D05FEA83786DD50A6832
:10078000920606D40A6822F00A020A60012180F863
:100790002110DFF810814FF40072016808F114088D
:1007A00013011402414524D9A9420DD0B1420FD002
:1007B000B9421AD0614515D0494515D0514501D1EE
:1007C000120312E0594501D102220EE0714501D118
:1007D00020220AE0354D1435A94206D0334A28328A
:1007E000914201D11A4600E022462F49091F0A60B2
:1007F00029E0A94213D0B14215D0B94220D06145B9
:100800001BD049451BD0514502D14FF4001217E0CF
:10081000414502D14FF0007212E0594501D1022248
:100820000EE0714501D120220AE0204D1435A94285
:1008300006D01E4A2832914201D11A4600E02246D3
:10084000134908394A60002180F82010816A002984
:100850001CD0BDE8F05F0847FFE70825A54015421A
:1008600014D01A0712D50A6822F00E020A6090F816
:100870004020C36B012101FA02F25A60816380F8C3
:100880002110002180F82010016BE0E7BDE8F09F07
:10089000080002401C0002403000024044000240B8
:1008A000580002406C000240080402401C04024050
:1008B00030B560B11A4B026814219A4209D2194B23
:1008C0001344B3FBF1F18900016417490AE00120E8
:1008D00030BD134B5B421344B3FBF1F1890001645B
:1008E0000F490839C163022180F82110136843F6CB
:1008F000F0718B43F0E901142143D0E902452C4308
:1009000021430469214344692143846921431943F4
:10091000116000214163012242770177084630BD12
:1009200008040240F8FFFDBF0000024070B5044615
:1009300090F82000002501280CD0012084F8200028
:1009400094F821600020012E06D084F820000225B2
:10095000284670BD022070BD022684F82160A06385
:100960002068066826F0010606602046FFF7FCFCBA
:10097000E06A00282068016802D041F00E0106E01C
:1009800021F0040101602068016841F00A01016062
:100990002068016841F001010160D9E770B50446A3
:1009A00000F03CF90546601C02D00448007804447D
:1009B00000F034F9401BA042FAD370BD1C000020A7
:1009C0000D4900220B685A620A68136843F001035C
:1009D000136009684A6A8242FCD3086A41F2111224
:1009E000104207D1086A9210104203D1086820F023
:1009F00001000860704700003801002070470000C7
:100A0000044910B50A68024202D00860FFF7F6FFF9
:100A100010BD0000140401402DE9F84FDFF8C89123
:100A20000024A9F1040B23460F2709F1040AABF1B6
:100A3000040ED1E00125A54006EA0502AA4276D1BE
:100A4000DFF8A8C14E68A6EB0C0866452BD00DDC7C
:100A5000032E34D005DC36B3012E19D0022E2FD14F
:100A60001BE0112E16D0122E2AD119E0B8F5881FDE
:100A700019D006DCB8F5803F15D0B8F5801F1FD11E
:100A800011E0B8F5001F0ED0B8F5041F18D10AE028
:100A9000CB6815E0CB681B1D12E0CB6808330FE074
:100AA000CB680C330CE08B682BB1012B4FF00803A3
:100AB00003D0456104E0042302E0056100E0002367
:100AC000FF2A01D8064601E000F104064FEA84053A
:100AD00001D9A5F12005D6F8008007FA05FC28EA1F
:100AE0000C0803FA05F548EA0508C6F800804D68C9
:100AF000ED0070D53E4DAE6946F00106AE61AD69C0
:100B000024F0030605F0010500953A4D06EB050CAF
:100B1000DCF80850A607360F07FA06F825EA08059C
:100B2000DFF8D480404503D14FF0000825E052E0C3
:100B3000DFF8C880404502D14FF001081DE0DFF822
:100B4000C080404502D14FF0020816E0DFF8B480C3
:100B5000404502D14FF003080FE0DFF8AC8040457C
:100B600002D14FF0040808E0DFF8A080404502D130
:100B70004FF0050801E04FF0060808FA06F848EAC9
:100B80000508CCF808804D68D9F80060ED024D46A4
:100B900001D5164300E096432E604D68DAF80060F8
:100BA000AD02554601D5164300E096432E604D68D0
:100BB000DBF80060AD035D4601D5164300E09643C7
:100BC0002E604D68DEF80060ED03754601D51643D2
:100BD00000E096432E60641C0A681646E2407FF4EB
:100BE00029AFBDE8F88F0000080401400000111093
:100BF000001002400000014000080140000C0140CC
:100C0000001001400014014000180140001C014088
:100C10000AB1016170470904FBE7000001488068E0
:100C2000704700001C0000200248816802781144CF
:100C3000816070471C000020074810B5016841F032
:100C400010010160032000F075F80F2000F006F895
:100C500000F024F8002010BD0020024070B50D4DBA
:100C600004464FF47A712878B1FBF0F00A4909681C
:100C7000B1FBF0F000F0F0FA48B9102C07D20022D6
:100C80002146501E00F036F800206C6070BD012037
:100C900070BD00001C000020280000200C4808B592
:100CA000816941F001018161816901F001010091D7
:100CB000C16941F08051C161C06900F0805000906D
:100CC0000448416821F0E06141F00071416008BDD5
:100CD0000010024000000140002809DB00F01F0264
:100CE000012191404009800000F1E020C0F800118E
:100CF00070470000F0B40E4B1B680C46C3F3022390
:100D0000C3F10705042D00D90425191D072901D2B7
:100D1000002300E0DB1E012606FA05F1491E2140F2
:100D200099409E40761E16403143F0BC0CF00EBA3E
:100D30000CED00E0064900F0070208684FF6FF03DB
:100D4000184040EA0220034A104308607047000040
:100D50000CED00E00000FA05704700002DE9F047B7
:100D60000F46050061D0434E306800F00700B842DE
:100D700009D2306820F0070038433060306800F056
:100D80000700B84251D128683B4C810712D5400773
:100D900003D5606840F4E06060602878000703D500
:100DA000606840F4605060606068A96820F0F000FE
:100DB000084360602878C00728D06868012810D0F0
:100DC0002168022810D0890700292EDA616821F0F5
:100DD000030101436160FFF721FF804641F288393A
:100DE0000DE021688903EFE78901EDE7FFF716FFC2
:100DF000A0EB0801494502D90320BDE8F0876068EF
:100E0000696800F00C00B0EB810FEFD1306800F0A2
:100E10000700B8420BD9306820F007003843306033
:100E2000306800F00700B84201D00120E5E72878DB
:100E3000400705D56068E96820F4E0600843606019
:100E40002878000706D56068296920F4605040EAD8
:100E5000C100606000F03EF86168084AC1F3031108
:100E6000515CC8400649086006480068FFF7F6FE76
:100E70000020C2E7002002400010024046D70008D0
:100E8000280000202000002001490120C86470478C
:100E9000000042420448054900684968044AC1F319
:100EA0000221515CC8407047280000200010024019
:100EB00056D700080448054900684968044AC1F348
:100EC000C221515CC8407047280000200010024039
:100ED00056D700080E4A51680E4801F00C03042B47
:100EE00011D0082B0FD10C48C1F38343C903C05C58
:100EF0000AD55168084AC1F34041921E515C054A27
:100F00005043B0FBF1F0704704494843704700007C
:100F10000010024000127A0036D7000800093D0098
:100F200010B5044CA068000603D5FFF715FF80201C
:100F3000A07210BD001002402DE9F84F040070D0DF
:100F40002078C04DC00749D06868C0F381000128EF
:100F500007D06868C0F38100022809D16868C0031F
:100F600006D52868800339D560680028E7D035E0C9
:100F70006068B0F5803F0BD010B1B0F5A02F11D054
:100F8000286820F480302860286820F4802002E05F
:100F9000286840F480302860606890B1FFF73EFE1A
:100FA00006460AE0286840F480202860F0E700BF89
:100FB000FFF734FE801B642873D828688003F7D5B8
:100FC0000CE0FFF72BFE064605E000BFFFF726FE0C
:100FD000801B6428F0D828688003F7D420789A4EC4
:100FE00080074FF001094FF0000839D5686810F00C
:100FF0000C0F07D06868C0F38100022809D1686827
:10100000C00306D42868800714D52069012808D1B8
:1010100010E02069B0B1C6F80090FFF7FFFD074669
:1010200005E00AE1FFF7FAFDC01B0228C4D82868D2
:101030008007F7D52868616920F0F80040EAC10010
:1010400028600DE0C6F80080FFF7E8FD074604E0E1
:10105000FFF7E4FDC01B022823D828688007F7D4D7
:10106000207800072CD57948A169D9B1C0F8009043
:10107000FFF7D4FD074604E0FFF7D0FDC01B0228B0
:101080000FD8686A8007F7D571484FF4FA510068A5
:10109000B0FBF1F0009000BF0098411E0091FAD221
:1010A0000EE080E0C0F80080FFF7B8FD074604E0DE
:1010B000FFF7B4FDC01B022875D8686A8007F7D413
:1010C0002078400760D5E8690027C00008D4E869A7
:1010D00040F08050E861E869012700F080500090FE
:1010E0005C480168C90513D40168834641F48071E6
:1010F0000160FFF793FD824606E000BFFFF78EFD1B
:10110000A0EB0A0064284ED8DBF80000C005F5D536
:10111000E06801280AD008B1052813D0286A20F019
:1011200001002862286A20F0040002E0286A40F0EA
:1011300001002862E06841F2883B98B1FFF76EFD3C
:1011400082460BE0286A40F004002862EEE700BF08
:10115000FFF764FDA0EB0A0159455AD8286A8007B9
:10116000F6D50CE0FFF75AFD824605E0FFF756FD85
:10117000A0EB0A0159454CD8286A8007F6D41FB164
:10118000E86920F08050E861E06988B36968C1F3DC
:101190008101022944D00228C6F8608004D0FFF7FC
:1011A0003DFD044638E034E0FFF738FD074604E033
:1011B000FFF734FDC01B02282BD828688001F7D424
:1011C000206AB0F5803F05D16868A16820F400303E
:1011D00008436860D4E908010843696821F4741180
:1011E00008436860C6F86090FFF718FD044606E003
:1011F00025E000BFFFF712FD001B022809D8286870
:101200008001F7D51BE000BFFFF708FD001B022897
:1012100002D90320BDE8F88F28688001F4D40EE0DD
:101220000128F7D06868226A00F48031914204D125
:10123000616A00F47010884201D00120EAE70020C2
:10124000E8E70000001002400000424280044242F1
:10125000280000200070004010B5401EB0F1807FD3
:1012600001D3012010BD4FF0E02460610F21601711
:101270000BF06CFF0020A06107202061002010BD52
:101280007047704770B590F83C20012A2CD001249B
:1012900080F83C40022280F83D2003685A689D682F
:1012A00022F070060A6832435A60104B02689A4274
:1012B0000ED00F4B9A420BD0B2F1804F08D00D4B9D
:1012C0009A4205D00C4B9A4202D00C4B9A4204D160
:1012D000496825F080031943916080F83D40002162
:1012E00080F83C10084670BD022070BD002C014003
:1012F000003401400004004000080040000C0040A1
:1013000010B5040003D094F83D0010B107E00120AF
:1013100010BD002084F83C00204600F01FF8022099
:1013200084F83D00211D20680BF06CFB012084F83F
:10133000460084F83E0084F83F0084F8400084F8BA
:10134000410084F8420084F8430084F8440084F8A3
:10135000450084F83D00002010BD000008B5154A86
:101360000168154891420ED1C16941F00201C16185
:10137000C069002200F00200009011461D20FFF716
:10138000B9FC1D2010E00D4A914211D1C16941F014
:101390001001C161C069002200F0100000901146E8
:1013A0003620FFF7A7FC3620BDE80840FFF794BCC5
:1013B00008BD000000040040001002400010004082
:1013C00090F83D10012901D001207047022180F8DA
:1013D0003D100168CA6842F00102CA6000680E4907
:1013E00088420ED00D4988420BD0B0F1804F08D012
:1013F0000B49884205D00B49884202D00A498842ED
:1014000004D1816801F00701062903D0016841F089
:101410000101016000207047002C014000340140B0
:101420000004004000080040000C004070B5044675
:1014300090F83C000025012817D0012684F83C6074
:10144000022084F83D002068826822F0770222F4AE
:101450007F4282600868502838D00DDC20284FD0A9
:1014600005DC90B3102811D14AE0022070BD30286D
:1014700046D040280AD13BE060282FD070280DD0FC
:10148000B0F5805F03D0B0F5005F12D0012584F87D
:101490003D60002084F83C00284670BDCB68D1E94F
:1014A000012120680BF001FB2068816841F0770181
:1014B00009E0CB68D1E9012120680BF0F6FA206839
:1014C000816841F480418160E1E719E0CA684968B8
:1014D00020680BF0BFFB5021206806E0CA6849680D
:1014E00020680BF0C8FB602120680BF0E8FACEE71B
:1014F000CA68496820680BF0ADFB40212068F4E71A
:10150000226801461046F0E7704770B5044600684F
:1015100001694FF00005C943890715D4C168C94363
:10152000890711D4E91E01610120207720688069B4
:101530008007204602D0FFF7E7FF04E000F0C8F87C
:10154000204600F05AF9257720680169C943490708
:1015500017D4C168C943490713D46FF0040101616E
:10156000022020772068806910F4407F204602D056
:10157000FFF7CAFF04E000F0ABF8204600F03DF9A9
:10158000257720680169C943090716D4C168C94392
:10159000090712D46FF00801016104202077206848
:1015A000C0698007204602D0FFF7AEFF04E000F0DC
:1015B0008FF8204600F021F9257720680169C9439A
:1015C000C90617D4C168C943C90613D46FF0100106
:1015D0000161082020772068C06910F4407F204610
:1015E00002D0FFF791FF04E000F072F8204600F00F
:1015F00004F9257720680169C943C90708D1C16882
:10160000C943C90704D1891E0161204600F050F981
:1016100020680169C943090609D4C168C94309069C
:1016200005D46FF0800101612046FFF729FE206894
:101630000169C943490609D4C168C943490605D4AB
:101640006FF040010161204600F033F92068016924
:10165000C94389060BD4C168C943890607D46FF012
:10166000200101612046BDE87040FFF70ABE70BD51
:1016700000B585B0002100910191029103910068AD
:101680000F4988421AD10F48816941F010018161E8
:101690008069694600F0100004904020009002200C
:1016A000019003900848FFF7B7F90848416821F412
:1016B000406141F0E06141F44061416005B000BD2E
:1016C00000040040001002400010014000000140F2
:1016D000704770B5044690F83C0000260D4601287E
:1016E0000FD0012084F83C006AB1042A1DD0082ADA
:1016F0002FD00C2A3FD00126002084F83C00304631
:1017000070BD022070BD20680BF0E2F9206881698D
:1017100041F0080181612068816921F00401816143
:10172000206881692A69114311E020680BF000FAF2
:101730002068816941F4006181612068816921F438
:1017400080618161206881692A6941EA02218161A1
:10175000D2E720680BF022FA2068C16941F0080145
:10176000C1612068C16921F00401C1612068C169BB
:101770002A69114311E020680BF044FA2068C1691E
:1017800041F40061C1612068C16921F48061C161D7
:101790002068C1692A6941EA0221C161ACE710B53C
:1017A000040003D094F83D0010B107E0012010BD03
:1017B000002084F83C00204600F01EF8022084F847
:1017C0003D00211D20680BF01DF9012084F8460022
:1017D00084F83E0084F83F0084F8400084F841001B
:1017E00084F8420084F8430084F8440084F84500FB
:1017F00084F83D00002010BD7047704710B50446C6
:10180000022249B104290ED0082913D094F84100CE
:10181000012816D0012010BD94F83E000128F9D10E
:1018200084F83E200FE094F83F000128F2D184F8BC
:101830003F2008E094F840000128EBD184F84020D4
:1018400001E084F84120012220680BF021F91349BE
:101850002068134A884201D0904203D1436C43F47C
:1018600000434364206888420DD090420BD0B0F111
:10187000804F08D00B49884205D00B49884202D0DE
:101880000A49884204D1816801F00701062903D082
:10189000016841F001010160002010BD002C0140F1
:1018A000003401400004004000080040000C0040EB
:1018B0007047704738B5044690F84200202801D0A0
:1018C000022038BD61B15AB101202063002060635D
:1018D00020460BF08BFB0028F3D1216B012901D0AE
:1018E000012038BD21680A684968009121680C31DF
:1018F00051E8002F42F0100241E80023002BF5D1FF
:1019000038BD00002DE9F047894600684B49884200
:1019100072D1B9F1640F6FD8642249494948FFF781
:10192000C9FF494E494F4A4C307800254FF6FF7A9F
:1019300090B1434A47A102F164000BF0F3FB404829
:101940006430FEF73CFCC0B22071172802D9257123
:1019500041A053E0207011E0474E3078C8B1384ABA
:101960003CA102F164000BF0DDFB35486430FEF76A
:1019700026FCC0B220713B28E9D8607053464A4625
:101980002F49304800F082FA257165713D6035704D
:1019900049E0DFF8E88098F80000002849D0284A9C
:1019A0002CA102F164000BF0BDFB25490222643139
:1019B00001F11400FEF7EAFB214E02226436F11C0D
:1019C00006F12800FEF7E2FB0122B11C06F13C0003
:1019D000FEF7DCFB06F11400FEF7F1FB074606F10B
:1019E0002800FEF7ECFB06461548022224A1A03091
:1019F000FEF7D8FB28B100E01DE022A00BF082FB2F
:101A000011E0172FF7DC3B2EF5DCA770E67026A05F
:101A10000BF078FB53464A4609490A4800F036FA6B
:101A2000657188F80050BDE8F04764210448FEF76E
:101A3000A2BB20A0E2E7BDE8F0870000003801402B
:101A40003C000020800100200F0000201800002032
:101A50000000002025730000736574206572726FAA
:101A600072A3BA706C6561736520696E70757420BD
:101A7000616761696E0A00001000002011000020FB
:101A80002D000000666F726D6174206572726F7256
:101A9000A3BA706C6561736520696E70757420619E
:101AA0006761696E0A000000616C61726D5F736549
:101AB000740A0000636F6D6D616E64206572726FF1
:101AC00072A3BA706C6561736520696E707574205D
:101AD000616761696E0A000010B5006807498842B5
:101AE0000AD1642206490748FFF7E4FEBDE810402A
:101AF00064210348FEF73FBB10BD000000380140E1
:101B00003C00002080010020F8B501680446086808
:101B1000CA684B6910F00F0F4FF000055AD003F060
:101B2000010602F49077374365D0C10705D0D1058F
:101B300003D5616C41F001016164410705D5D90706
:101B400003D0616C41F002016164810705D5D907BA
:101B500003D0616C41F004016164010707D502F014
:101B60002001314303D0616C41F008016164616C74
:101B700000293BD0800604D5900602D520460BF004
:101B800077F920684069616CC0F3801001F00801AA
:101B9000014320462BD00BF036F9206840694006FF
:101BA00021D52068143050E8001F21F0400140E8A2
:101BB0000012002AF5D1E06BA8B16D494163E06BDA
:101BC000FEF7BAFC002811D0E06B416B01B0BDE814
:101BD000F040084783060ED593060CD52046BDE895
:101BE000F8400BF045B92046FFF776FFF8BDFFF748
:101BF00073FF6564F8BD266B2023012E7CD1C606D9
:101C00007AD5D60678D508684868009048694FF0BC
:101C10000206400640D5E16B086840680004000CED
:101C2000E8D0A28D8242E5D9E085886920282DD0B0
:101C300020680C3050E8001F21F4807140E8001249
:101C4000002AF5D12168143151E8000F20F001007D
:101C500041E80002002AF5D12068143050E8001F46
:101C600021F0400140E80012002AF5D184F842300A
:101C7000256320680C3050E8001F21F0100140E877
:101C80000012002AF5D1E06BFEF732FC6663A08DEE
:101C9000E18D401A81B22AE0A08DE18D401A81B217
:101CA000E08D0028A6D00029A4D022680C3252E88A
:101CB000000F20F4907042E80007002FF5D1206853
:101CC000143050E8002F22F0010240E80027002FD6
:101CD000F5D184F84230256320680C3050E8002F9D
:101CE00022F0100240E80023002BF5D16663204665
:101CF000FFF708FEF8BDFFE705062BD5150629D529
:101D000094F841002128F5D1A068B0F5805F01D199
:101D10002069B0B1206A411C2162216800784860C6
:101D2000E08C401E0004000CE084E3D12068C16810
:101D300021F08001C1602068C16841F04001C160AC
:101D4000D8E7206A0088C0F308004860206A801C39
:101D50002062E5E74006CDD55006CBD5CA682046BF
:101D600022F04002CA6084F8413000F0DCF8C1E79C
:101D700009CD000870B5040004D094F84100002596
:101D800010B106E0012070BD84F84050204600F0FC
:101D900023F8242084F841002068C16821F4005110
:101DA000C16020460BF0C6F82068016921F490411B
:101DB00001612068416921F02A0141612068C16800
:101DC00041F40051C1606564202084F8410084F82A
:101DD00042006563002070BD70B586B000250646E0
:101DE00000950195029503950068224988423ED1ED
:101DF0002149886940F480408861886900F4804006
:101E00000490886940F00400886188691B4C00F0E8
:101E100004000490481500900220019003200390D4
:101E200069462046FEF7F8FD2015CDE90005694614
:101E300020460295FEF7F0FD124C1148C4E900055A
:101E40008020C4E9025025616561A5612046E561F5
:101E5000FEF72EFD08B1FEF72DFBF46300221146BC
:101E600025206662FEF746FF2520FEF735FF06B007
:101E700070BD000000380140001002400008014021
:101E800058000240C8010020704770472DE9F84310
:101E9000044690F841001F4616460D46202802D001
:101EA0000220BDE8F8837DB176B100206064212076
:101EB00084F84100FEF7B2FEA6848046E684A0685E
:101EC000B0F5805F02D003E00120EAE7206910B19D
:101ED0002E4600250EE000260CE0802120460BF067
:101EE000CDF8A0B9AEB116F8010B21684860E08CBE
:101EF000401EE084E08C43464FF00002009700282B
:101F0000EBD14FF0400120460BF0B8F830B1032080
:101F1000C7E735F8020BC0F30800E6E7202084F895
:101F200041000020BDE77047FEE708B500210090A2
:101F300040F23F13EF22084600F090F908BD000080
:101F400070B50B46024608F097FDBD4C01220221F8
:101F50002046FEF75DFEA615002231462046FEF71C
:101F600057FEE068C0F30A00C14340EA0140206127
:101F7000B44D2888C00B01D0012200E000220821C6
:101F80002046FEF745FE012210212046FEF740FEC6
:101F9000002210212046FEF73BFE2888800BC00758
:101FA00001D0012200E0002208212046FEF730FE89
:101FB000012210212046FEF72BFE00221021204690
:101FC000FEF726FE2888400BC00701D0012200E062
:101FD000002208212046FEF71BFE01221021204688
:101FE000FEF716FE002210212046FEF711FE28887B
:101FF000000BC00701D0012200E00022082120468A
:10200000FEF706FE012210212046FEF701FE002207
:1020100010212046FEF7FCFD2888C00AC00701D029
:10202000012200E0002208212046FEF7F1FD0122F6
:1020300010212046FEF7ECFD002210212046FEF77D
:10204000E7FD2888800AC00701D0012200E00022B5
:1020500008212046FEF7DCFD012210212046FEF774
:10206000D7FD002210212046FEF7D2FD2888400A25
:10207000C00701D0012200E0002208212046FEF71F
:10208000C7FD012210212046FEF7C2FD00221021CB
:102090002046FEF7BDFD2888000AC00701D00122B6
:1020A00000E0002208212046FEF7B2FD01221021A7
:1020B0002046FEF7ADFD002210212046FEF7A8FDC8
:1020C0002878C009C00701D0012200E000220821C1
:1020D0002046FEF79DFD012210212046FEF798FDC7
:1020E000002210212046FEF793FD28788009C007C2
:1020F00001D0012200E0002208212046FEF788FDE1
:10210000012210212046FEF783FD002210212046E7
:10211000FEF77EFD28784009C00701D0012200E0CB
:10212000002208212046FEF773FD012210212046DF
:10213000FEF76EFD002210212046FEF769FD28788B
:102140000009C00701D0012200E00022082120463A
:10215000FEF75EFD012210212046FEF759FD002208
:1021600010212046FEF754FD2878C008C00701D092
:10217000012200E0002208212046FEF749FD01224D
:1021800010212046FEF744FD002210212046FEF7D4
:102190003FFD28788008C00701D0012200E000221E
:1021A00008212046FEF734FD012210212046FEF7CB
:1021B0002FFD002210212046FEF72AFD2878400836
:1021C000C00701D0012200E0002208212046FEF7CE
:1021D0001FFD012210212046FEF71AFD00221021CA
:1021E0002046FEF715FD2878C00701D0012200E047
:1021F000002208212046FEF70BFD01221021204677
:10220000FEF706FD002210212046FEF701FD012207
:10221000D1022046FEF7FCFC4FF40075002229464F
:102220002046FEF7F5FC012229462046FEF7F0FC89
:1022300031462046BDE870400122FEF7E9BC0000AF
:10224000001401402C00002070B5034C258822802A
:10225000FFF776FE258070BD2C0000202DE9F05F91
:102260009A4616460D4607460A9C08F005FCF01BE8
:10227000401C87B2DFF8F0824FF4807B6FE10026CC
:1022800068E1012202214046FEF7C2FC00225946C5
:102290004046FEF7BDFCD8F80C00C0F30A00C1436D
:1022A00040EA0141C8F81010E00B01D0012200E023
:1022B000002208214046FEF7ABFC012210214046D7
:1022C000FEF7A6FC002210214046FEF7A1FCA00B61
:1022D000C00701D0012200E0002208214046FEF79D
:1022E00097FC012210214046FEF792FC00221021AB
:1022F0004046FEF78DFC600BC00701D0012200E0D4
:10230000002208214046FEF783FC012210214046AE
:10231000FEF77EFC002210214046FEF779FC200BE0
:10232000C00701D0012200E0002208214046FEF74C
:102330006FFC012210214046FEF76AFC00221021AA
:102340004046FEF765FCE00AC00701D0012200E02C
:10235000002208214046FEF75BFC01221021404686
:10236000FEF756FC002210214046FEF751FCA00A61
:10237000C00701D0012200E0002208214046FEF7FC
:1023800047FC012210214046FEF742FC00221021AA
:102390004046FEF73DFC600AC00701D0012200E084
:1023A000002208214046FEF733FC0122102140465E
:1023B000FEF72EFC002210214046FEF729FC200AE1
:1023C000C00701D0012200E0002208214046FEF7AC
:1023D0001FFC012210214046FEF71AFC00221021AA
:1023E0004046FEF715FCE009C00701D0012200E0DD
:1023F000002208214046FEF70BFC01221021404636
:10240000FEF706FC002210214046FEF701FCA00961
:10241000C00701D0012200E0002208214046FEF75B
:10242000F7FB012210214046FEF7F2FB00221021AB
:102430004046FEF7EDFB6009C00701D0012200E035
:10244000002208214046FEF7E3FB0122102140460E
:10245000FEF7DEFB002210214046FEF7D9FB2009E3
:10246000C00701D0012200E0002208214046FEF70B
:10247000CFFB012210214046FEF7CAFB00221021AB
:102480004046FEF7C5FBE008C00701D0012200E08E
:10249000002208214046FEF7BBFB012210214046E6
:1024A000FEF7B6FB002210214046FEF7B1FBA00864
:1024B000C00701D0012200E0002208214046FEF7BB
:1024C000A7FB012210214046FEF7A2FB00221021AB
:1024D0004046FEF79DFB6008C00701D0012200E0E6
:1024E000002208214046FEF793FB012210214046BE
:1024F000FEF78EFB002210214046FEF789FBE00725
:1025000001D0012200E0002208214046FEF780FBB6
:10251000012210214046FEF77BFB0022102140469D
:10252000FEF776FB0122D1024046FEF771FB4FF425
:102530000079002249464046FEF76AFB01224946DF
:102540004046FEF765FB012259464046FEF760FB18
:10255000761CB6B2BE42FFF494AE6D1CADB25545CA
:102560007FF68DAEBDE8F09F001401402DE9F041EB
:1025700008F062FAFF4C012204212046FEF748FBD6
:102580000520FEF71DFA0121002009F051FF05206A
:10259000FEF716FACF2009F005FE0122022120469F
:1025A000FEF736FBA715002239462046FEF730FB22
:1025B000E068C0F30A00C14340EA01402061002204
:1025C00008212046FEF724FB012210212046FEF7B9
:1025D0001FFB002210212046FEF71AFB00220821D3
:1025E0002046FEF715FB012210212046FEF710FBC6
:1025F000002210212046FEF70BFB00220821204676
:10260000FEF706FB012210212046FEF701FB002207
:1026100010212046FEF7FCFA002208212046FEF792
:10262000F7FA012210212046FEF7F2FA00221021CB
:102630002046FEF7EDFA002208212046FEF7E8FAD0
:10264000012210212046FEF7E3FA00221021204645
:10265000FEF7DEFA002208212046FEF7D9FA012211
:1026600010212046FEF7D4FA002210212046FEF762
:10267000CFFA002208212046FEF7CAFA01221021D3
:102680002046FEF7C5FA002210212046FEF7C0FAC8
:10269000002208212046FEF7BBFA01221021204625
:1026A000FEF7B6FA002210212046FEF7B1FA00220A
:1026B00008212046FEF7ACFA012210212046FEF741
:1026C000A7FA002210212046FEF7A2FA00220821D4
:1026D0002046FEF79DFA012210212046FEF798FAC7
:1026E000002210212046FEF793FA002208212046FE
:1026F000FEF78EFA012210212046FEF789FA002209
:1027000010212046FEF784FA002208212046FEF719
:102710007FFA012210212046FEF77AFA00221021CA
:102720002046FEF775FA002208212046FEF770FACF
:10273000012210212046FEF76BFA002210212046CC
:10274000FEF766FA002208212046FEF761FA012210
:1027500010212046FEF75CFA002210212046FEF7E9
:1027600057FA002208212046FEF752FA01221021D2
:102770002046FEF74DFA002210212046FEF748FAC7
:10278000002208212046FEF743FA012210212046AC
:10279000FEF73EFA002210212046FEF739FA012208
:1027A000D50229462046FEF733FA66150022314647
:1027B0002046FEF72DFA012231462046FEF728FA80
:1027C000012239462046FEF723FA01220221204643
:1027D000FEF71EFA002239462046FEF719FAE06895
:1027E000C0F30A00C14340EA0140206100220821F1
:1027F0002046FEF70DFA012210212046FEF708FAC6
:10280000002210212046FEF703FA0022082120466C
:10281000FEF7FEF9012210212046FEF7F9F9002209
:1028200010212046FEF7F4F9002208212046FEF789
:10283000EFF9012210212046FEF7EAF900221021CB
:102840002046FEF7E5F9002208212046FEF7E0F9D0
:10285000012210212046FEF7DBF90022102120463C
:10286000FEF7D6F9002208212046FEF7D1F9012211
:1028700010212046FEF7CCF9002210212046FEF759
:10288000C7F9002208212046FEF7C2F901221021D3
:102890002046FEF7BDF9002210212046FEF7B8F9C8
:1028A000002208212046FEF7B3F90122102120461C
:1028B000FEF7AEF9002210212046FEF7A9F900220A
:1028C00008212046FEF7A4F9012210212046FEF738
:1028D0009FF9002210212046FEF79AF901220821D3
:1028E0002046FEF795F9012210212046FEF790F9C7
:1028F000002210212046FEF78BF9012208212046F4
:10290000FEF786F9012210212046FEF781F9002208
:1029100010212046FEF77CF9002208212046FEF710
:1029200077F9012210212046FEF772F900221021CA
:102930002046FEF76DF9012208212046FEF768F9CE
:10294000012210212046FEF763F9002210212046C3
:10295000FEF75EF9012208212046FEF759F901220F
:1029600010212046FEF754F9002210212046FEF7E0
:102970004FF901E000140140002208212046FEF733
:1029800047F9012210212046FEF742F900221021CA
:102990002046FEF73DF9002208212046FEF738F9CF
:1029A000012210212046FEF733F900221021204693
:1029B000FEF72EF9012208212046FEF729F901220F
:1029C00010212046FEF724F9002210212046FEF7B0
:1029D0001FF9012229462046FEF71AF90022314646
:1029E0002046FEF715F9012231462046FEF710F980
:1029F000012239462046FEF70BF90122022120462A
:102A0000FEF706F9002239462046FEF701F9E06894
:102A1000C0F30A00C14340EA0140206100220821BE
:102A20002046FEF7F5F8012210212046FEF7F0F8C7
:102A3000002210212046FEF7EBF800220821204654
:102A4000FEF7E6F8012210212046FEF7E1F8002209
:102A500010212046FEF7DCF8002208212046FEF770
:102A6000D7F8012210212046FEF7D2F800221021CB
:102A70002046FEF7CDF8002208212046FEF7C8F8D0
:102A8000012210212046FEF7C3F800221021204623
:102A9000FEF7BEF8002208212046FEF7B9F8012211
:102AA00010212046FEF7B4F8002210212046FEF740
:102AB000AFF8002208212046FEF7AAF801221021D3
:102AC0002046FEF7A5F8002210212046FEF7A0F8C8
:102AD000002208212046FEF79BF801221021204603
:102AE000FEF796F8002210212046FEF791F800220A
:102AF00008212046FEF78CF8012210212046FEF71F
:102B000087F8002210212046FEF782F800220821D3
:102B10002046FEF77DF8012210212046FEF778F8C6
:102B2000002210212046FEF773F8002208212046DB
:102B3000FEF76EF8012210212046FEF769F8002208
:102B400010212046FEF764F8012208212046FEF7F6
:102B50005FF8012210212046FEF75AF800221021CA
:102B60002046FEF755F8012208212046FEF750F8CE
:102B7000012210212046FEF74BF8002210212046AA
:102B8000FEF746F8002208212046FEF741F8012210
:102B900010212046FEF73CF8002210212046FEF7C7
:102BA00037F8002208212046FEF732F801221021D2
:102BB0002046FEF72DF8002210212046FEF728F8C7
:102BC000002208212046FEF723F80122102120468A
:102BD000FEF71EF8002210212046FEF719F8002209
:102BE00008212046FEF714F8012210212046FEF7A6
:102BF0000FF8002210212046FEF70AF8012229468C
:102C00002046FEF705F8002231462046FEF700F880
:102C1000012231462046FDF7FBFF012239462046BE
:102C2000FDF7F6FFED2009F0BDFA01220221204652
:102C3000FDF7EEFF002239462046FDF7E9FFE06888
:102C4000C0F30A00C14340EA01402061002208218C
:102C50002046FDF7DDFF012210212046FDF7D8FFB9
:102C6000002210212046FDF7D3FF00220821204634
:102C7000FDF7CEFF012210212046FDF7C9FF0022FB
:102C800010212046FDF7C4FF002208212046FDF751
:102C9000BFFF012210212046FDF7BAFF00221021BC
:102CA0002046FDF7B5FF002208212046FDF7B0FFC2
:102CB000012210212046FDF7ABFF00221021204603
:102CC000FDF7A6FF002208212046FDF7A1FF012203
:102CD00010212046FDF79CFF002210212046FDF721
:102CE00097FF002208212046FDF792FF01221021C4
:102CF0002046FDF78DFF002210212046FDF788FFBA
:102D0000002208212046FDF783FF012210212046E2
:102D1000FDF77EFF002210212046FDF779FF0022FB
:102D200008212046FDF774FF012210212046FDF7FF
:102D30006FFF002210212046FDF76AFF00220821C4
:102D40002046FDF765FF012210212046FDF760FFB8
:102D5000002210212046FDF75BFF012208212046BA
:102D6000FDF756FF012210212046FDF751FF0022FA
:102D700010212046FDF74CFF012208212046FDF7D7
:102D800047FF012210212046FDF742FF00221021BB
:102D90002046FDF73DFF002208212046FDF738FFC1
:102DA000012210212046FDF733FF0022102120468A
:102DB000FDF72EFF002208212046FDF729FF012202
:102DC00010212046FDF724FF002210212046FDF7A8
:102DD0001FFF012208212046FDF71AFF01221021C2
:102DE0002046FDF715FF002210212046FDF710FFB9
:102DF000002208212046FDF70BFF0122102120466A
:102E0000FDF706FF002210212046FDF701FF0022FA
:102E100008212046FDF7FCFE012210212046FDF787
:102E2000F7FE002210212046FDF7F2FE012229467E
:102E30002046FDF7EDFE002231462046FDF7E8FE74
:102E4000012231462046FDF7E3FE012239462046A5
:102E5000FDF7DEFE012202212046FDF7D9FE002209
:102E600039462046FDF7D4FEE068C0F30A00C143AE
:102E700040EA01402061002208212046FDF7C8FEFB
:102E8000012210212046FDF7C3FE0022102120461A
:102E9000FDF7BEFE002208212046FDF7B9FE012203
:102EA00010212046FDF7B4FE002210212046FDF738
:102EB000AFFE002208212046FDF7AAFE01221021C4
:102EC0002046FDF7A5FE002210212046FDF7A0FEBA
:102ED000002208212046FDF79BFE012210212046FA
:102EE000FDF796FE002210212046FDF791FE0022FC
:102EF00008212046FDF78CFE012210212046FDF717
:102F000087FE002210212046FDF782FE00220821C4
:102F10002046FDF77DFE012210212046FDF778FEB8
:102F2000002210212046FDF773FE002208212046D2
:102F3000FDF76EFE012210212046FDF769FE0022FA
:102F400010212046FDF764FE002208212046FDF7EF
:102F50005FFE012210212046FDF75AFE00221021BB
:102F60002046FDF755FE002208212046FDF750FEC1
:102F7000012210212046FDF74BFE002210212046A1
:102F8000FDF746FE002208212046FDF741FE012202
:102F900010212046FDF73CFE002210212046FDF7BF
:102FA00037FE002208212046FDF732FE01221021C3
:102FB0002046FDF72DFE002210212046FDF728FEB9
:102FC000002208212046FDF723FE01221021204681
:102FD000FDF71EFE002210212046FDF719FE0022FB
:102FE00008212046FDF714FE012210212046FDF79E
:102FF0000FFE002210212046FDF70AFE00220821C4
:103000002046FDF705FE012210212046FDF700FEB7
:10301000002210212046FDF7FBFD01220821204659
:10302000FDF7F6FD012210212046FDF7F1FD0022FB
:1030300010212046FDF7ECFD012208212046FDF776
:10304000E7FD012210212046FDF7E2FD00221021BC
:103050002046FDF7DDFD012229462046FDF7D8FD7B
:10306000002231462046FDF7D3FD0122314620469D
:10307000FDF7CEFD012239462046FDF7C9FD0122AC
:1030800002212046FDF7C4FD002239462046FDF707
:10309000BFFDE068C0F30A00C14340EA014020617F
:1030A000002208212046FDF7B3FD01221021204611
:1030B000FDF7AEFD002210212046FDF7A9FD0022FC
:1030C00008212046FDF7A4FD012210212046FDF72E
:1030D0009FFD002210212046FDF79AFD00220821C5
:1030E0002046FDF795FD012210212046FDF790FDB9
:1030F000002210212046FDF78BFD002208212046EA
:10310000FDF786FD012210212046FDF781FD0022FA
:1031100010212046FDF77CFD002208212046FDF706
:1031200077FD012210212046FDF772FD00221021BB
:103130002046FDF76DFD002208212046FDF768FDC1
:10314000012210212046FDF763FD002210212046B8
:10315000FDF75EFD002208212046FDF759FD012202
:1031600010212046FDF754FD002210212046FDF7D6
:103170004FFD002208212046FDF74AFD01221021C3
:103180002046FDF745FD002210212046FDF740FDB9
:10319000002208212046FDF73BFD01221021204698
:1031A000FDF736FD002210212046FDF731FD0022FB
:1031B00008212046FDF72CFD012210212046FDF7B5
:1031C00027FD002210212046FDF722FD00220821C4
:1031D0002046FDF71DFD012210212046FDF718FDB8
:1031E000002210212046FDF713FD01220821204670
:1031F000FDF70EFD012210212046FDF709FD0022FA
:1032000010212046FDF704FD002208212046FDF78D
:10321000FFFC012210212046FDF7FAFC00221021BC
:103220002046FDF7F5FC002208212046FDF7F0FCC2
:10323000012210212046FDF7EBFC00221021204640
:10324000FDF7E6FC012208212046FDF7E1FC012202
:1032500010212046FDF7DCFC002210212046FDF75E
:10326000D7FC002208212046FDF7D2FC01221021C4
:103270002046FDF7CDFC002210212046FDF7C8FCBA
:10328000012229462046FDF7C3FC00223146204694
:10329000FDF7BEFC012231462046FDF7B9FC0122B4
:1032A00039462046FDF7B4FC012202212046FDF7F5
:1032B000AFFC002239462046FDF7AAFCE068C0F3C7
:1032C0000A00C14340EA0140206100220821204653
:1032D000FDF79EFC012210212046FDF799FC0022FB
:1032E00010212046FDF794FC002208212046FDF71E
:1032F0008FFC012210212046FDF78AFC00221021BC
:103300002046FDF785FC002208212046FDF780FCC1
:10331000012210212046FDF77BFC002210212046CF
:10332000FDF776FC002208212046FDF771FC012202
:1033300010212046FDF76CFC002210212046FDF7ED
:1033400067FC002208212046FDF762FC01221021C3
:103350002046FDF75DFC002210212046FDF758FCB9
:10336000002208212046FDF753FC012210212046AF
:10337000FDF74EFC002210212046FDF749FC0022FB
:1033800008212046FDF744FC012210212046FDF7CC
:103390003FFC002210212046FDF73AFC00220821C4
:1033A0002046FDF735FC012210212046FDF730FCB8
:1033B000002210212046FDF72BFC01220821204687
:1033C000FDF726FC012210212046FDF721FC0022FA
:1033D00010212046FDF71CFC002208212046FDF7A5
:1033E00017FC012210212046FDF712FC00221021BB
:1033F0002046FDF70DFC002208212046FDF708FCC1
:10340000012210212046FDF703FC00221021204656
:10341000FDF7FEFB002208212046FDF7F9FB012203
:1034200010212046FDF7F4FB002210212046FDF775
:10343000EFFB002208212046FDF7EAFB01221021C4
:103440002046FDF7E5FB002210212046FDF7E0FBBA
:10345000002208212046FDF7DBFB01221021204637
:10346000FDF7D6FB002210212046FDF7D1FB0022FC
:1034700008212046FDF7CCFB012210212046FDF754
:10348000C7FB002210212046FDF7C2FB01220821C4
:103490002046FDF7BDFB012210212046FDF7B8FBB9
:1034A000002210212046FDF7B3FB012229462046C9
:1034B000FDF7AEFB002231462046FDF7A9FB0122B5
:1034C00031462046FDF7A4FB012239462046FDF790
:1034D0009FFBE82008F066FE012202212046FDF74E
:1034E00097FB002239462046FDF792FBE068C0F3C7
:1034F0000A00C14340EA0140206100220821204621
:10350000FDF786FB012210212046FDF781FB0022FA
:1035100010212046FDF77CFB002208212046FDF704
:1035200077FB012210212046FDF772FB00221021BB
:103530002046FDF76DFB002208212046FDF768FBC1
:10354000012210212046FDF763FB002210212046B6
:10355000FDF75EFB002208212046FDF759FB012202
:1035600010212046FDF754FB002210212046FDF7D4
:103570004FFB002208212046FDF74AFB01221021C3
:103580002046FDF745FB002210212046FDF740FBB9
:10359000002208212046FDF73BFB01221021204696
:1035A000FDF736FB002210212046FDF731FB0022FB
:1035B00008212046FDF72CFB012210212046FDF7B3
:1035C00027FB002210212046FDF722FB00220821C4
:1035D0002046FDF71DFB012210212046FDF718FBB8
:1035E000002210212046FDF713FB0122082120466E
:1035F000FDF70EFB012210212046FDF709FB0022FA
:1036000010212046FDF704FB002208212046FDF78B
:10361000FFFA012210212046FDF7FAFA00221021BC
:103620002046FDF7F5FA002208212046FDF7F0FAC2
:10363000012210212046FDF7EBFA0022102120463E
:10364000FDF7E6FA002208212046FDF7E1FA012203
:1036500010212046FDF7DCFA002210212046FDF75C
:10366000D7FA002208212046FDF7D2FA01221021C4
:103670002046FDF7CDFA002210212046FDF7C8FABA
:10368000012208212046FDF7C3FA0122102120461D
:10369000FDF7BEFA002210212046FDF7B9FA0022FC
:1036A00008212046FDF7B4FA012210212046FDF73B
:1036B000AFFA002210212046FDF7AAFA01220821C4
:1036C0002046FDF7A5FA012210212046FDF7A0FAB9
:1036D000002210212046FDF79BFA012229462046B0
:1036E000FDF796FA002231462046FDF791FA0122B5
:1036F00031462046FDF78CFA012239462046FDF777
:1037000087FA012202212046FDF782FA002239467B
:103710002046FDF77DFAE068C0F30A00C14340EAA5
:1037200001402061002208212046FDF771FA0122A4
:1037300010212046FDF76CFA002210212046FDF7EB
:1037400067FA002208212046FDF762FA01221021C3
:103750002046FDF75DFA002210212046FDF758FAB9
:10376000002208212046FDF753FA012210212046AD
:10377000FDF74EFA002210212046FDF749FA0022FB
:1037800008212046FDF744FA012210212046FDF7CA
:103790003FFA002210212046FDF73AFA00220821C4
:1037A0002046FDF735FA012210212046FDF730FAB8
:1037B000002210212046FDF72BFA00220821204686
:1037C000FDF726FA012210212046FDF721FA0022FA
:1037D00010212046FDF71CFA002208212046FDF7A3
:1037E00017FA012210212046FDF712FA00221021BB
:1037F0002046FDF70DFA002208212046FDF708FAC1
:10380000012210212046FDF703FA00221021204654
:10381000FDF7FEF9002208212046FDF7F9F9012203
:1038200010212046FDF7F4F9002210212046FDF773
:10383000EFF9002208212046FDF7EAF901221021C4
:103840002046FDF7E5F9002210212046FDF7E0F9BA
:10385000002208212046FDF7DBF901221021204635
:10386000FDF7D6F9002210212046FDF7D1F90122FB
:1038700008212046FDF7CCF9012210212046FDF752
:10388000C7F9002210212046FDF7C2F900220821C5
:103890002046FDF7BDF9012210212046FDF7B8F9B9
:1038A000002210212046FDF7B3F90022082120460E
:1038B000FDF7AEF9012210212046FDF7A9F90022FB
:1038C00010212046FDF7A4F9002208212046FDF72B
:1038D0009FF9012210212046FDF79AF900221021BC
:1038E0002046FDF795F9002208212046FDF790F9C2
:1038F000012210212046FDF78BF9002210212046DD
:10390000FDF786F9012229462046FDF781F90022BC
:1039100031462046FDF77CF9012231462046FDF76D
:1039200077F9012239462046FDF772F9012202217A
:103930002046FDF76DF9002239462046FDF768F96B
:10394000E068C0F30A00C14340EA01402061002260
:1039500008212046FDF75CF9012210212046FDF7E1
:1039600057F9002210212046FDF752F900220821C4
:103970002046FDF74DF9012210212046FDF748F9B8
:10398000002210212046FDF743F90022082120469D
:10399000FDF73EF9012210212046FDF739F90022FA
:1039A00010212046FDF734F9002208212046FDF7BA
:1039B0002FF9012210212046FDF72AF900221021BB
:1039C0002046FDF725F9002208212046FDF720F9C1
:1039D000012210212046FDF71BF90022102120466C
:1039E000FDF716F9002208212046FDF711F9012202
:1039F00010212046FDF70CF9002210212046FDF78A
:103A000007F9002208212046FDF702F901221021C2
:103A10002046FDF7FDF8002210212046FDF7F8F8BA
:103A2000002208212046FDF7F3F80122102120464C
:103A3000FDF7EEF8002210212046FDF7E9F80022FC
:103A400008212046FDF7E4F8012210212046FDF769
:103A5000DFF8002210212046FDF7DAF801220821C4
:103A60002046FDF7D5F8012210212046FDF7D0F8B9
:103A7000002210212046FDF7CBF801220821204624
:103A8000FDF7C6F8012210212046FDF7C1F80022FB
:103A900010212046FDF7BCF8012208212046FDF741
:103AA000B7F8012210212046FDF7B2F800221021BC
:103AB0002046FDF7ADF8012208212046FDF7A8F8C1
:103AC000012210212046FDF7A3F8002210212046F4
:103AD000FDF79EF8002208212046FDF799F8012203
:103AE00010212046FDF794F8002210212046FDF712
:103AF0008FF8002208212046FDF78AF801221021C4
:103B00002046FDF785F8002210212046FDF780F8B9
:103B1000002208212046FDF77BF8012210212046D3
:103B2000FDF776F8002210212046FDF771F80122FA
:103B300029462046FDF76CF8002231462046FDF765
:103B400067F8012231462046FDF762F80122394626
:103B50002046FDF75DF8CB2008F024FB012202216E
:103B60002046FDF755F8002239462046FDF750F86B
:103B7000E068C0F30A00C14340EA0140206100222E
:103B800008212046FDF744F8012210212046FDF7C8
:103B90003FF8002210212046FDF73AF800220821C4
:103BA0002046FDF735F8012210212046FDF730F8B8
:103BB000002210212046FDF72BF800220821204684
:103BC000FDF726F8012210212046FDF721F80022FA
:103BD00010212046FDF71CF8002208212046FDF7A1
:103BE00017F8012210212046FDF712F800221021BB
:103BF0002046FDF70DF8002208212046FDF708F8C1
:103C0000012210212046FDF703F800221021204652
:103C1000FCF7FEFF002208212046FCF7F9FF0122F5
:103C200010212046FCF7F4FF002210212046FCF76B
:103C3000EFFF002208212046FCF7EAFF01221021B5
:103C40002046FCF7E5FF002210212046FCF7E0FFAC
:103C5000002208212046FCF7DBFF0122102120462C
:103C6000FCF7D6FF002210212046FCF7D1FF0022EE
:103C700008212046FCF7CCFF012210212046FCF74A
:103C8000C7FF002210212046FCF7C2FF00220821B6
:103C90002046FCF7BDFF012210212046FCF7B8FFAB
:103CA000002210212046FCF7B3FF01220821204604
:103CB000FCF7AEFF012210212046FCF7A9FF0022ED
:103CC00010212046FCF7A4FF012208212046FCF722
:103CD0009FFF012210212046FCF79AFF00221021AD
:103CE0002046FCF795FF012208212046FCF790FFB3
:103CF000012210212046FCF78BFF002210212046D4
:103D0000FCF786FF002208212046FCF781FF0122F4
:103D100010212046FCF77CFF002210212046FCF7F2
:103D200077FF002208212046FCF772FF01221021B4
:103D30002046FCF76DFF002210212046FCF768FFAB
:103D4000012208212046FCF763FF012210212046B2
:103D5000FCF75EFF002210212046FCF759FF0122EC
:103D600029462046FCF754FF002231462046FCF746
:103D70004FFF012231462046FCF74AFF0122394617
:103D80002046FCF745FF012202212046FCF740FFB8
:103D9000002239462046FCF73BFFE068C0F30A00EA
:103DA000C14340EA01402061002208212046FCF77F
:103DB0002FFF012210212046FCF72AFF00221021AC
:103DC0002046FCF725FF002208212046FCF720FFB3
:103DD000012210212046FCF71BFF00221021204663
:103DE000FCF716FF002208212046FCF711FF0122F4
:103DF00010212046FCF70CFF002210212046FCF782
:103E000007FF002208212046FCF702FF01221021B3
:103E10002046FCF7FDFE002210212046FCF7F8FEAC
:103E2000002208212046FCF7F3FE01221021204643
:103E3000FCF7EEFE002210212046FCF7E9FE0022EE
:103E400008212046FCF7E4FE012210212046FCF761
:103E5000DFFE002210212046FCF7DAFE00220821B6
:103E60002046FCF7D5FE012210212046FCF7D0FEAB
:103E7000002210212046FCF7CBFE0022082120461C
:103E8000FCF7C6FE012210212046FCF7C1FE0022ED
:103E900010212046FCF7BCFE002208212046FCF73A
:103EA000B7FE012210212046FCF7B2FE00221021AD
:103EB0002046FCF7ADFE002208212046FCF7A8FEB4
:103EC000012210212046FCF7A3FE002210212046EB
:103ED000FCF79EFE012208212046FCF799FE0122F4
:103EE00010212046FCF794FE002210212046FCF70A
:103EF0008FFE002208212046FCF78AFE01221021B5
:103F00002046FCF785FE002210212046FCF780FEAB
:103F1000012208212046FCF77BFE012210212046C9
:103F2000FCF776FE002210212046FCF771FE0122EC
:103F300008212046FCF76CFE012210212046FCF7E8
:103F400067FE002210212046FCF762FE00220821B5
:103F50002046FCF75DFE012210212046FCF758FEAA
:103F6000002210212046FCF753FE002208212046A3
:103F7000FCF74EFE012210212046FCF749FE0022EC
:103F800010212046FCF744FE012229462046FCF77A
:103F90003FFE002231462046FCF73AFE0122314620
:103FA0002046FCF735FE012239462046FCF730FE5C
:103FB000012202212046FCF72BFE00223946204632
:103FC000FCF726FEE068C0F30A00C14340EA014066
:103FD0002061002208212046FCF71AFE0122102150
:103FE0002046FCF715FE002210212046FCF710FEAB
:103FF000002208212046FCF70BFE0122102120465A
:10400000FCF706FE002210212046FCF701FE0022EC
:1040100008212046FCF7FCFD012210212046FCF778
:10402000F7FD002210212046FCF7F2FD00220821B6
:104030002046FCF7EDFD012210212046FCF7E8FDAB
:10404000002210212046FCF7E3FD00220821204633
:10405000FCF7DEFD012210212046FCF7D9FD0022ED
:1040600010212046FCF7D4FD002208212046FCF751
:10407000CFFD012210212046FCF7CAFD00221021AD
:104080002046FCF7C5FD002208212046FCF7C0FDB4
:10409000012210212046FCF7BBFD00221021204602
:1040A000FCF7B6FD002208212046FCF7B1FD0122F5
:1040B00010212046FCF7ACFD002210212046FCF721
:1040C000A7FD002208212046FCF7A2FD01221021B5
:1040D0002046FCF79DFD002210212046FCF798FDAC
:1040E000002208212046FCF793FD012210212046E2
:1040F000FCF78EFD002210212046FCF789FD0022EE
:1041000008212046FCF784FD012210212046FCF7FF
:104110007FFD002210212046FCF77AFD00220821B5
:104120002046FCF775FD012210212046FCF770FDAA
:10413000002210212046FCF76BFD002208212046BA
:10414000FCF766FD012210212046FCF761FD0022EC
:1041500010212046FCF75CFD002208212046FCF7D8
:1041600057FD012210212046FCF752FD00221021AC
:104170002046FCF74DFD002208212046FCF748FDB3
:10418000012210212046FCF743FD00221021204689
:10419000FCF73EFD002208212046FCF739FD0122F4
:1041A00010212046FCF734FD002210212046FCF7A8
:1041B0002FFD012229462046FCF72AFD0022314628
:1041C0002046FCF725FD012231462046FCF720FD64
:1041D000012239462046FCF71BFD01220221204620
:1041E000FCF716FD002239462046FCF711FDE06879
:1041F000C0F30A00C14340EA0140206100220821C7
:104200002046FCF705FD012210212046FCF700FDA9
:10421000002210212046FCF7FBFC0022082120464A
:10422000FCF7F6FC012210212046FCF7F1FC0022ED
:1042300010212046FCF7ECFC002208212046FCF768
:10424000E7FC012210212046FCF7E2FC00221021AD
:104250002046FCF7DDFC002208212046FCF7D8FCB4
:10426000012210212046FCF7D3FC00221021204619
:10427000FCF7CEFC002208212046FCF7C9FC0122F5
:1042800010212046FCF7C4FC002210212046FCF738
:10429000BFFC002208212046FCF7BAFC01221021B5
:1042A0002046FCF7B5FC002210212046FCF7B0FCAC
:1042B000002208212046FCF7ABFC012210212046F9
:1042C000FCF7A6FC002210212046FCF7A1FC0022EE
:1042D00008212046FCF79CFC012210212046FCF717
:1042E00097FC002210212046FCF792FC00220821B6
:1042F0002046FCF78DFC012210212046FCF788FCAB
:10430000002210212046FCF783FC002208212046D1
:10431000FCF77EFC012210212046FCF779FC0022EC
:1043200010212046FCF774FC012208212046FCF7EE
:104330006FFC012210212046FCF76AFC00221021AC
:104340002046FCF765FC012208212046FCF760FCB2
:10435000012210212046FCF75BFC002210212046A0
:10436000FCF756FC002208212046FCF751FC0122F4
:1043700010212046FCF74CFC002210212046FCF7BF
:1043800047FC012208212046FCF742FC01221021B3
:104390002046FCF73DFC002210212046FCF738FCAB
:1043A000002208212046FCF733FC01221021204680
:1043B000FCF72EFC002210212046FCF729FC0022ED
:1043C00008212046FCF724FC012210212046FCF79E
:1043D0001FFC002210212046FCF71AFC012229466E
:1043E0002046FCF715FC002231462046FCF710FC65
:1043F000012231462046FCF70BFC012239462046BB
:10440000FCF706FC012202212046FCF701FC0022F9
:1044100039462046FCF7FCFBE068C0F30A00C143C4
:1044200040EA01402061002208212046FCF7F0FB11
:10443000012210212046FCF7EBFB00221021204630
:10444000FCF7E6FB002208212046FCF7E1FB0122F5
:1044500010212046FCF7DCFB002210212046FCF74F
:10446000D7FB002208212046FCF7D2FB01221021B5
:104470002046FCF7CDFB002210212046FCF7C8FBAC
:10448000002208212046FCF7C3FB01221021204610
:10449000FCF7BEFB002210212046FCF7B9FB0022EE
:1044A00008212046FCF7B4FB012210212046FCF72E
:1044B000AFFB002210212046FCF7AAFB00220821B6
:1044C0002046FCF7A5FB012210212046FCF7A0FBAB
:1044D000002210212046FCF79BFB002208212046E9
:1044E000FCF796FB012210212046FCF791FB0022ED
:1044F00010212046FCF78CFB002208212046FCF707
:1045000087FB012210212046FCF782FB00221021AC
:104510002046FCF77DFB002208212046FCF778FBB3
:10452000012210212046FCF773FB002210212046B7
:10453000FCF76EFB002208212046FCF769FB0122F4
:1045400010212046FCF764FB002210212046FCF7D6
:104550005FFB002208212046FCF75AFB01221021B4
:104560002046FCF755FB002210212046FCF750FBAB
:10457000002208212046FCF74BFB01221021204697
:10458000FCF746FB002210212046FCF741FB0022ED
:1045900008212046FCF73CFB012210212046FCF7B5
:1045A00037FB002210212046FCF732FB00220821B5
:1045B0002046FCF72DFB012210212046FCF728FBAA
:1045C000002210212046FCF723FB0122082120466F
:1045D000FCF71EFB012210212046FCF719FB0022EC
:1045E00010212046FCF714FB002208212046FCF78E
:1045F0000FFB012210212046FCF70AFB00221021AC
:104600002046FCF705FB012229462046FCF700FB6B
:10461000002231462046FCF7FBFA012231462046B3
:10462000FCF7F6FA012239462046FCF7F1FAF720AA
:1046300007F0B8FD012202212046FCF7E9FA00222A
:1046400039462046FCF7E4FAE068C0F30A01C843A3
:1046500041EA00402061002208212046FCF7D8FAF8
:10466000012210212046FCF7D3FA00221021204617
:10467000FCF7CEFA002208212046FCF7C9FA0122F5
:1046800010212046FCF7C4FA002210212046FCF736
:10469000BFFA002208212046FCF7BAFA01221021B5
:1046A0002046FCF7B5FA002210212046FCF7B0FAAC
:1046B000002208212046FCF7ABFA012210212046F7
:1046C000FCF7A6FA002210212046FCF7A1FA0022EE
:1046D00008212046FCF79CFA012210212046FCF715
:1046E00097FA002210212046FCF792FA00220821B6
:1046F0002046FCF78DFA012210212046FCF788FAAB
:10470000002210212046FCF783FA002208212046CF
:10471000FCF77EFA012210212046FCF779FA0022EC
:1047200010212046FCF774FA002208212046FCF7ED
:104730006FFA012210212046FCF76AFA00221021AC
:104740002046FCF765FA002208212046FCF760FAB3
:10475000012210212046FCF75BFA0022102120469E
:10476000FCF756FA002208212046FCF751FA0122F4
:1047700010212046FCF74CFA002210212046FCF7BD
:1047800047FA012208212046FCF742FA01221021B3
:104790002046FCF73DFA002210212046FCF738FAAB
:1047A000002208212046FCF733FA0122102120467E
:1047B000FCF72EFA002210212046FCF729FA0022ED
:1047C00008212046FCF724FA012210212046FCF79C
:1047D0001FFA002210212046FCF71AFA00220821B5
:1047E0002046FCF715FA012210212046FCF710FAAA
:1047F000002210212046FCF70BFA00220821204657
:10480000FCF706FA012210212046FCF701FA0022EB
:1048100010212046FCF7FCF9002208212046FCF775
:10482000F7F9012210212046FCF7F2F900221021AD
:104830002046FCF7EDF9012229462046FCF7E8F96D
:10484000002231462046FCF7E3F90122314620469A
:10485000FCF7DEF9012239462046FCF7D9F9EA20B7
:1048600007F0A0FC012202212046FCF7D1F900222A
:1048700039462046FCF7CCF9E068C0F30A00C14392
:1048800040EA01402061002208212046FCF7C0F9DF
:10489000012210212046FCF7BBF9002210212046FE
:1048A000FCF7B6F9002208212046FCF7B1F90122F5
:1048B00010212046FCF7ACF9002210212046FCF71D
:1048C000A7F9002208212046FCF7A2F901221021B5
:1048D0002046FCF79DF9002210212046FCF798F9AC
:1048E000002208212046FCF793F9012210212046DE
:1048F000FCF78EF9002210212046FCF789F90022EE
:1049000008212046FCF784F9012210212046FCF7FB
:104910007FF9002210212046FCF77AF900220821B5
:104920002046FCF775F9012210212046FCF770F9AA
:10493000002210212046FCF76BF9002208212046B6
:10494000FCF766F9012210212046FCF761F90022EC
:1049500010212046FCF75CF9002208212046FCF7D4
:1049600057F9012210212046FCF752F900221021AC
:104970002046FCF74DF9002208212046FCF748F9B3
:10498000012210212046FCF743F900221021204685
:10499000FCF73EF9002208212046FCF739F90122F4
:1049A00010212046FCF734F9002210212046FCF7A4
:1049B0002FF9002208212046FCF72AF901221021B4
:1049C0002046FCF725F9002210212046FCF720F9AB
:1049D000002208212046FCF71BF901221021204665
:1049E000FCF716F9002210212046FCF711F90022ED
:1049F00008212046FCF70CF9012210212046FCF783
:104A000007F9002210212046FCF702F900220821B4
:104A10002046FCF7FDF8012210212046FCF7F8F8AB
:104A2000002210212046FCF7F3F80022082120463E
:104A3000FCF7EEF8012210212046FCF7E9F80022ED
:104A400010212046FCF7E4F8002208212046FCF75C
:104A5000DFF8012210212046FCF7DAF800221021AD
:104A60002046FCF7D5F8012229462046FCF7D0F86D
:104A7000002231462046FCF7CBF801223146204681
:104A8000FCF7C6F8012239462046FCF7C1F801229E
:104A900002212046FCF7BCF8002239462046FCF7EC
:104AA000B7F8E068C0F30A00C14340EA0140206162
:104AB000002208212046FCF7ABF8012210212046F5
:104AC000FCF7A6F8002210212046FCF7A1F80022EE
:104AD00008212046FCF79CF8012210212046FCF713
:104AE00097F8002210212046FCF792F800220821B6
:104AF0002046FCF78DF8012210212046FCF788F8AB
:104B0000002210212046FCF783F8002208212046CD
:104B1000FCF77EF8012210212046FCF779F80022EC
:104B200010212046FCF774F8002208212046FCF7EB
:104B30006FF8012210212046FCF76AF800221021AC
:104B40002046FCF765F8002208212046FCF760F8B3
:104B5000012210212046FCF75BF80022102120469C
:104B6000FCF756F8002208212046FCF751F80122F4
:104B700010212046FCF74CF8002210212046FCF7BB
:104B800047F8002208212046FCF742F801221021B4
:104B90002046FCF73DF8002210212046FCF738F8AB
:104BA000002208212046FCF733F80122102120467C
:104BB000FCF72EF8002210212046FCF729F80022ED
:104BC00008212046FCF724F8012210212046FCF79A
:104BD0001FF8002210212046FCF71AF800220821B5
:104BE0002046FCF715F8012210212046FCF710F8AA
:104BF000002210212046FCF70BF800220821204655
:104C0000FCF706F8012210212046FCF701F80022EB
:104C100010212046FBF7FCFF002208212046FBF76D
:104C2000F7FF012210212046FBF7F2FF002210219E
:104C30002046FBF7EDFF002208212046FBF7E8FFA6
:104C4000012210212046FBF7E3FF0022102120461D
:104C5000FBF7DEFF002208212046FBF7D9FF0122E7
:104C600010212046FBF7D4FF002210212046FBF73D
:104C7000CFFF002208212046FBF7CAFF01221021A6
:104C80002046FBF7C5FF002210212046FBF7C0FF9E
:104C9000012229462046FBF7BBFF00223146204671
:104CA000FBF7B6FF012231462046FBF7B1FF012298
:104CB00039462046FBF7ACFFC02007F073FA01220B
:104CC00002212046FBF7A4FF002239462046FBF7CD
:104CD0009FFFE068C0F30A00C14340EA0140206141
:104CE000002208212046FBF793FF012210212046D5
:104CF000FBF78EFF002210212046FBF789FF0022E0
:104D000008212046FBF784FF012210212046FBF7F3
:104D10007FFF002210212046FBF77AFF00220821A6
:104D20002046FBF775FF012210212046FBF770FF9C
:104D3000002210212046FBF76BFF002208212046AD
:104D4000FBF766FF012210212046FBF761FF0022DE
:104D500010212046FBF75CFF002208212046FBF7CC
:104D600057FF012210212046FBF752FF002210219D
:104D70002046FBF74DFF002208212046FBF748FFA5
:104D8000012210212046FBF743FF0022102120467C
:104D9000FBF73EFF002208212046FBF739FF0122E6
:104DA00010212046FBF734FF002210212046FBF79C
:104DB0002FFF002208212046FBF72AFF01221021A5
:104DC0002046FBF725FF002210212046FBF720FF9D
:104DD000002208212046FBF71BFF0122102120465C
:104DE000FBF716FF002210212046FBF711FF0022DF
:104DF00008212046FBF70CFF012210212046FBF77B
:104E000007FF002210212046FBF702FF01220821A4
:104E10002046FBF7FDFE012210212046FBF7F8FE9D
:104E2000002210212046FBF7F3FE00220821204635
:104E3000FBF7EEFE012210212046FBF7E9FE0022DF
:104E400010212046FBF7E4FE002208212046FBF754
:104E5000DFFE012210212046FBF7DAFE002210219E
:104E60002046FBF7D5FE002208212046FBF7D0FEA6
:104E7000012210212046FBF7CBFE00221021204604
:104E8000FBF7C6FE002208212046FBF7C1FE0122E7
:104E900010212046FBF7BCFE002210212046FBF724
:104EA000B7FE012208212046FBF7B2FE01221021A5
:104EB0002046FBF7ADFE002210212046FBF7A8FE9E
:104EC000012229462046FBF7A3FE00223146204658
:104ED000FBF79EFE012231462046FBF799FE012298
:104EE00039462046FBF794FEC12007F05BF901220A
:104EF00002212046FBF78CFE002239462046FBF7B4
:104F000087FEE068C0F30A00C14340EA0140206127
:104F1000002208212046FBF77BFE012210212046BB
:104F2000FBF776FE002210212046FBF771FE0022DF
:104F300008212046FBF76CFE012210212046FBF7DA
:104F400067FE002210212046FBF762FE00220821A6
:104F50002046FBF75DFE012210212046FBF758FE9C
:104F6000002210212046FBF753FE00220821204694
:104F7000FBF74EFE012210212046FBF749FE0022DE
:104F800010212046FBF744FE002208212046FBF7B3
:104F90003FFE012210212046FBF73AFE002210219D
:104FA0002046FBF735FE002208212046FBF730FEA5
:104FB000012210212046FBF72BFE00221021204663
:104FC000FBF726FE002208212046FBF721FE0122E6
:104FD00010212046FBF71CFE002210212046FBF783
:104FE00017FE002208212046FBF712FE01221021A5
:104FF0002046FBF70DFE002210212046FBF708FE9D
:10500000002208212046FBF703FE01221021204642
:10501000FBF7FEFD002210212046FBF7F9FD0022E0
:1050200008212046FBF7F4FD012210212046FBF762
:10503000EFFD002210212046FBF7EAFD00220821A7
:105040002046FBF7E5FD012210212046FBF7E0FD9D
:10505000002210212046FBF7DBFD0122082120461B
:10506000FBF7D6FD012210212046FBF7D1FD0022DF
:1050700010212046FBF7CCFD002208212046FBF73B
:10508000C7FD012210212046FBF7C2FD002210219E
:105090002046FBF7BDFD002208212046FBF7B8FDA6
:1050A000012210212046FBF7B3FD002210212046EB
:1050B000FBF7AEFD012208212046FBF7A9FD0122E6
:1050C00010212046FBF7A4FD002210212046FBF70B
:1050D0009FFD002208212046FBF79AFD01221021A6
:1050E0002046FBF795FD002210212046FBF790FD9E
:1050F000012229462046FBF78BFD0022314620463F
:10510000FBF786FD012231462046FBF781FD012297
:1051100039462046FBF77CFDC52007F043F8012205
:1051200002212046FBF774FD002239462046FBF79A
:105130006FFDE068C0F30A00C14340EA014020610E
:10514000002208212046FBF763FD012210212046A2
:10515000FBF75EFD002210212046FBF759FD0022DF
:1051600008212046FBF754FD012210212046FBF7C1
:105170004FFD002210212046FBF74AFD00220821A6
:105180002046FBF745FD012210212046FBF740FD9C
:10519000002210212046FBF73BFD0022082120467B
:1051A000FBF736FD012210212046FBF731FD0022DE
:1051B00010212046FBF72CFD002208212046FBF79A
:1051C00027FD012210212046FBF722FD002210219D
:1051D0002046FBF71DFD002208212046FBF718FDA5
:1051E000012210212046FBF713FD0022102120464A
:1051F000FBF70EFD002208212046FBF709FD0122E6
:1052000010212046FBF704FD002210212046FBF769
:10521000FFFC002208212046FBF7FAFC01221021A6
:105220002046FBF7F5FC002210212046FBF7F0FC9E
:10523000002208212046FBF7EBFC0122102120462A
:10524000FBF7E6FC002210212046FBF7E1FC0022E0
:1052500008212046FBF7DCFC012210212046FBF749
:10526000D7FC002210212046FBF7D2FC01220821A6
:105270002046FBF7CDFC012210212046FBF7C8FC9D
:10528000002210212046FBF7C3FC01220821204602
:10529000FBF7BEFC012210212046FBF7B9FC0022DF
:1052A00010212046FBF7B4FC002208212046FBF722
:1052B000AFFC012210212046FBF7AAFC002210219E
:1052C0002046FBF7A5FC002208212046FBF7A0FCA6
:1052D000012210212046FBF79BFC002210212046D2
:1052E000FBF796FC012208212046FBF791FC0122E6
:1052F00010212046FBF78CFC002210212046FBF7F2
:1053000087FC002208212046FBF782FC01221021A5
:105310002046FBF77DFC002210212046FBF778FC9D
:10532000012229462046FBF773FC00223146204625
:10533000FBF76EFC012231462046FBF769FC012297
:1053400039462046FBF764FC012202212046FBF788
:105350005FFC002239462046FBF75AFCE068C0F3A8
:105360000A00C14340EA0140206100220821204692
:10537000FBF74EFC012210212046FBF749FC0022DE
:1053800010212046FBF744FC002208212046FBF7B1
:105390003FFC012210212046FBF73AFC002210219D
:1053A0002046FBF735FC002208212046FBF730FCA5
:1053B000012210212046FBF72BFC00221021204661
:1053C000FBF726FC002208212046FBF721FC0122E6
:1053D00010212046FBF71CFC002210212046FBF781
:1053E00017FC002208212046FBF712FC01221021A5
:1053F0002046FBF70DFC002210212046FBF708FC9D
:10540000002208212046FBF703FC01221021204640
:10541000FBF7FEFB002210212046FBF7F9FB0022E0
:1054200008212046FBF7F4FB012210212046FBF760
:10543000EFFB002210212046FBF7EAFB00220821A7
:105440002046FBF7E5FB012210212046FBF7E0FB9D
:10545000002210212046FBF7DBFB0022082120461A
:10546000FBF7D6FB012210212046FBF7D1FB0022DF
:1054700010212046FBF7CCFB002208212046FBF739
:10548000C7FB012210212046FBF7C2FB002210219E
:105490002046FBF7BDFB012208212046FBF7B8FBA5
:1054A000012210212046FBF7B3FB002210212046E9
:1054B000FBF7AEFB012208212046FBF7A9FB0122E6
:1054C00010212046FBF7A4FB002210212046FBF709
:1054D0009FFB012208212046FBF79AFB01221021A5
:1054E0002046FBF795FB002210212046FBF790FB9E
:1054F000012208212046FBF78BFB012210212046C8
:10550000FBF786FB002210212046FBF781FB0022DF
:1055100008212046FBF77CFB012210212046FBF7E7
:1055200077FB002210212046FBF772FB00220821A6
:105530002046FBF76DFB012210212046FBF768FB9C
:10554000002210212046FBF763FB0122294620465A
:10555000FBF75EFB002231462046FBF759FB012298
:1055600031462046FBF754FB012239462046FBF723
:105570004FFBC72006F016FE012202212046FBF752
:1055800047FB002239462046FBF742FBE068C0F3A8
:105590000A00C14340EA0140206100220821204660
:1055A000FBF736FB012210212046FBF731FB0022DE
:1055B00010212046FBF72CFB002208212046FBF798
:1055C00027FB012210212046FBF722FB002210219D
:1055D0002046FBF71DFB002208212046FBF718FBA5
:1055E000012210212046FBF713FB00221021204648
:1055F000FBF70EFB002208212046FBF709FB0122E6
:1056000010212046FBF704FB002210212046FBF767
:10561000FFFA002208212046FBF7FAFA01221021A6
:105620002046FBF7F5FA002210212046FBF7F0FA9E
:10563000002208212046FBF7EBFA01221021204628
:10564000FBF7E6FA002210212046FBF7E1FA0022E0
:1056500008212046FBF7DCFA012210212046FBF747
:10566000D7FA002210212046FBF7D2FA00220821A7
:105670002046FBF7CDFA012210212046FBF7C8FA9D
:10568000002210212046FBF7C3FA01220821204600
:10569000FBF7BEFA012210212046FBF7B9FA0022DF
:1056A00010212046FBF7B4FA012208212046FBF71F
:1056B000AFFA012210212046FBF7AAFA002210219E
:1056C0002046FBF7A5FA002208212046FBF7A0FAA6
:1056D000012210212046FBF79BFA002210212046D0
:1056E000FBF796FA002208212046FBF791FA0122E7
:1056F00010212046FBF78CFA002210212046FBF7F0
:1057000087FA002208212046FBF782FA01221021A5
:105710002046FBF77DFA002210212046FBF778FA9D
:10572000002208212046FBF773FA012210212046AF
:10573000FBF76EFA002210212046FBF769FA0022DF
:1057400008212046FBF764FA012210212046FBF7CE
:105750005FFA002210212046FBF75AFA01220821A5
:105760002046FBF755FA012210212046FBF750FA9C
:10577000002210212046FBF74BFA01222946204641
:10578000FBF746FA002231462046FBF741FA012298
:1057900031462046FBF73CFA012239462046FBF70A
:1057A00037FA362006F0FEFC012202212046FBF7E4
:1057B0002FFA002239462046FBF72AFAE068C0F3A8
:1057C0000A00C14340EA014020610022082120462E
:1057D000FBF71EFA012210212046FBF719FA0022DE
:1057E00010212046FBF714FA002208212046FBF77F
:1057F0000FFA012210212046FBF70AFA002210219D
:105800002046FBF705FA002208212046FBF700FAA4
:10581000012210212046FBF7FBF90022102120462F
:10582000FBF7F6F9002208212046FBF7F1F90122E7
:1058300010212046FBF7ECF9002210212046FBF74F
:10584000E7F9002208212046FBF7E2F901221021A6
:105850002046FBF7DDF9002210212046FBF7D8F99E
:10586000002208212046FBF7D3F90122102120460F
:10587000FBF7CEF9002210212046FBF7C9F90022E0
:1058800008212046FBF7C4F9012210212046FBF72E
:10589000BFF9002210212046FBF7BAF900220821A7
:1058A0002046FBF7B5F9012210212046FBF7B0F99D
:1058B000002210212046FBF7ABF9002208212046E8
:1058C000FBF7A6F9012210212046FBF7A1F90022DF
:1058D00010212046FBF79CF9002208212046FBF707
:1058E00097F9012210212046FBF792F9002210219E
:1058F0002046FBF78DF9002208212046FBF788F9A6
:10590000012210212046FBF783F9002210212046B6
:10591000FBF77EF9002208212046FBF779F90122E6
:1059200010212046FBF774F9002210212046FBF7D6
:105930006FF9012208212046FBF76AF901221021A4
:105940002046FBF765F9002210212046FBF760F99D
:10595000002208212046FBF75BF901221021204696
:10596000FBF756F9002210212046FBF751F90022DF
:1059700008212046FBF74CF9012210212046FBF7B5
:1059800047F9002210212046FBF742F900220821A6
:105990002046FBF73DF9012210212046FBF738F99C
:1059A000002210212046FBF733F901222946204628
:1059B000FBF72EF9002231462046FBF729F9012298
:1059C00031462046FBF724F9012239462046FBF7F1
:1059D0001FF93A2006F0E6FB012202212046FBF7E0
:1059E00017F9002239462046FBF712F9E068C0F3A8
:1059F0000A00C14340EA01402061002208212046FC
:105A0000FBF706F9012210212046FBF701F90022DD
:105A100010212046FBF7FCF8002208212046FBF766
:105A2000F7F8012210212046FBF7F2F8002210219E
:105A30002046FBF7EDF8002208212046FBF7E8F8A6
:105A4000012210212046FBF7E3F800221021204616
:105A5000FBF7DEF8002208212046FBF7D9F80122E7
:105A600010212046FBF7D4F8002210212046FBF736
:105A7000CFF8002208212046FBF7CAF801221021A6
:105A80002046FBF7C5F8002210212046FBF7C0F89E
:105A9000002208212046FBF7BBF8012210212046F6
:105AA000FBF7B6F8002210212046FBF7B1F80022E0
:105AB00008212046FBF7ACF8012210212046FBF715
:105AC000A7F8002210212046FBF7A2F800220821A7
:105AD0002046FBF79DF8012210212046FBF798F89D
