:020000040800F2
:10000000A80400204501000855080008F50700086D
:1000100051080008F1010008651300080000000005
:10002000000000000000000000000000550A000869
:10003000A103000800000000DD080008690B0008AB
:100040005F0100085F0100085F0100085F01000810
:100050005F0100085F010008A5030008C103000854
:10006000DD030008F90300085F0100085F010008D4
:100070005F0100085F0100085F0100085F010008E0
:100080005F0100085F0100085F0100085F010008D0
:100090005F0100085F0100085F0100085F010008C0
:1000A0005F0100085F0100085F0100085F010008B0
:1000B0005F010008CD0B00085F0100085F01000828
:1000C0005F0100085F0100085F0100085F01000890
:1000D0005F010008D50E00085F0100085F010008FD
:1000E0005F0100085F0100085F0100085F01000870
:1000F0005F0100085F0100085F0100085F01000860
:100100005F0100085F0100085F0100085F0100084F
:100110005F0100085F0100085F0100085F0100083F
:100120005F0100085F0100085F0100085F0100082F
:10013000DFF80CD000F04AF8004800470D1700081F
:10014000A80400200648804706480047FEE7FEE76F
:10015000FEE7FEE7FEE7FEE7FEE7FEE7FEE7FEE777
:100160006D0B00083101000840EA01039B0703D032
:1001700009E008C9121F08C0042AFAD203E011F8E6
:10018000013B00F8013B521EF9D27047D2B201E0A8
:1001900000F8012B491EFBD270470022F6E710B58C
:1001A00013460A4604461946FFF7F0FF204610BDE5
:1001B00030B504460020034600E05B1C934203D2A6
:1001C000E05CCD5C401BF8D030BD0000064C074D14
:1001D00006E0E06840F0010394E807009847103417
:1001E000AC42F6D3FFF7A8FF00180008201800085B
:1001F00000BFFEE721B1026842F00102026004E0A4
:1002000002684FF6FE731A400260704701684FF6AD
:10021000FE72114001600021016041608160C16097
:100220004B49884208D14A490839496841F00F01D1
:10023000474A083A51608AE045491431884208D15A
:1002400043490839496841F0F001414A083A516090
:100250007DE03F492831884208D13D490839496845
:1002600041F470613A4A083A516070E038493C31D3
:10027000884208D136490839496841F47041344A06
:10028000083A516063E032495031884208D1304920
:100290000839496841F470212D4A083A516056E006
:1002A0002B496431884208D129490839496841F409
:1002B0007001274A083A516049E02549783188425F
:1002C00008D123490839496841F07061204A083A49
:1002D00051603CE01F49884206D1011F096841F086
:1002E0000F01021F116032E01A491431884208D10F
:1002F0001849091F096841F0F001164A121F1160E0
:1003000025E014492831884208D11249091F09689B
:1003100041F470610F4A121F116018E00D493C3121
:10032000884208D10B49091F096841F47041094A04
:10033000121F11600BE007495031884207D105496F
:10034000091F096841F47021024A121F11607047A9
:1003500008000240080402400146486880B2704725
:1003600010B50022026847F6F0739A430C6A8B6856
:1003700023430C6923434C6923438C692343CC6991
:1003800023434C6A23438C6A23431A430260CB689D
:1003900043600B6883604B68C36010BD4160704769
:1003A0007047000010B5012000F03AF810B10120AC
:1003B00002490880012000F02DF810BD0400002043
:1003C00010B5022000F02CF810B10220024908807C
:1003D000022000F01FF810BD0400002010B504201A
:1003E00000F01EF810B1032002490880042000F03C
:1003F00011F810BD0400002010B5082000F010F81E
:1004000010B1042002490880082000F003F810BD54
:1004100004000020014908607047000014040140F6
:10042000014600200022074B1B6803EA0102054B2E
:1004300014331B680B4013B10AB1012000E0002007
:100440007047000000040140002123498279002AFE
:100450003AD00A46126803689A430B461A600A1D8E
:10046000126803689A430B1D1A60027911440A68E6
:1004700003681A430A60184A0832126803689A43EC
:10048000154B08331A601A1D126803689A43124B01
:100490000C331A604279102A0ED11A1F12680368B1
:1004A0001A430D4B08331A601A1D126803681A4369
:1004B000094B0C331A600DE00749427911440A6870
:1004C00003681A430A6005E0027911440A68036868
:1004D0009A430A60704700000004014030B50022D2
:1004E0008B071C0F0F2303FA04F20B4B8C1053F8ED
:1004F00024309343084C8D1044F8253023468C104B
:1005000053F824308C07240F00FA04F42343024CE0
:100510008D1044F8253030BD080001400EB5012192
:10052000084600F00DFA00210220FFF7D7FF012056
:10053000019000208DF808000C208DF809000120A2
:100540008DF80A0001A8FFF77FFF4FF4A06000F0CC
:10055000BBF906208DF8000001208DF801008DF810
:1005600002008DF80300684600F076F901210220B0
:10057000FFF7B4FF0220019000208DF808000C2046
:100580008DF8090001208DF80A0001A8FFF75CFF33
:100590004FF4A06000F098F907208DF800000120CA
:1005A0008DF801008DF802008DF80300684600F018
:1005B00053F902210846FFF791FF04200190002023
:1005C0008DF808000C208DF8090001208DF80A0034
:1005D00001A8FFF739FF4FF4A06000F075F908207B
:1005E0008DF8000001208DF801008DF802008DF8D3
:1005F0000300684600F030F903210220FFF76EFF88
:100600000820019000208DF808000C208DF80900CA
:1006100001208DF80A0001A8FFF716FF4FF4A06033
:1006200000F052F909208DF8000001208DF801003A
:100630008DF802008DF80300684600F00DF90EBD3C
:100640002DE9F04102460025002600200023002469
:10065000002791F803C00CF00F0591F803C00CF0CF
:10066000100CBCF1000F03D091F802C04CEA050554
:1006700091F800C0BCF1000F31D0146800202BE0CD
:100680004FF0010C0CFA00F3B1F800C00CEA0306BD
:100690009E4220D183004FF00F0C0CFA03F7BC43AD
:1006A00005FA03FC4CEA040491F803C0BCF1280FDE
:1006B00006D14FF0010C0CFA00FCC2F814C00AE09D
:1006C00091F803C0BCF1480F05D14FF0010C0CFAB2
:1006D00000FCC2F810C0401C0828D1D31460B1F847
:1006E00000C0BCF1FF0F34DD546800202EE000F1A3
:1006F000080C4FF0010808FA0CF3B1F800C00CEA3E
:1007000003069E4221D183004FF00F0C0CFA03F731
:10071000BC4305FA03FC4CEA040491F803C0BCF1A5
:10072000280F05D100F1080C08FA0CF8C2F8148063
:1007300091F803C0BCF1480F07D100F1080C4FF04D
:10074000010808FA0CF8C2F81080401C0828CED323
:100750005460BDE8F0810000F0B50A460023002493
:100760000021002500F00046B6F1004F02D11D4ED9
:10077000F16901E01B4E7168C0F3034583B200F4D8
:100780004016B6F5401F08D121F07061154E76680D
:1007900026F07066134F7E6012E000F48016B6F506
:1007A000801F06D1032606FA05F4A14341F07061CB
:1007B00006E0460D360103FA06F6B14341F07061DA
:1007C00022B1460D360103FA06F6314300F0004629
:1007D000B6F1004F02D1034EF16101E0014E7160AC
:1007E000F0BD0000000001404161704701617047A9
:1007F000C160704700BFFEE708B50121102000F07E
:100800009FF848208DF803000F20ADF800006946DE
:100810000148FFF715FF08BD0010014008B5012190
:10082000402000F08DF8FF20ADF8000003208DF887
:10083000020010208DF8030069460448FFF700FF0E
:1008400000210248FFF7D4FF08BD00000018014056
:1008500000BFFEE77047000070B5002100230F22A3
:10086000C47804B3154C246804F4E064C4F5E0646F
:10087000210AC1F10403CA40447804FA03F18478E0
:100880001440214309010E4C0678A155047804F068
:100890001F050124AC4005786D11AD0005F1E02580
:1008A000C5F8004109E0047804F01F050124AC40BC
:1008B000044D0678761145F8264070BD0CED00E039
:1008C00000E400E080E100E002490143024A1160D7
:1008D000704700000000FA050CED00E070470000D2
:1008E00029B1064A52690243044B5A6104E0034AA3
:1008F00052698243014B5A61704700000010024068
:1009000029B1064AD2690243044BDA6104E0034A82
:10091000D2698243014BDA61704700000010024047
:1009200029B1064A12690243044B1A6104E0034AE2
:1009300012698243014B1A617047000000100240A7
:1009400029B1064A92690243044B9A6104E0034AC2
:1009500092698243014B9A61704700000010024087
:1009600029B1064AD2680243044BDA6004E0034A24
:10097000D2688243014BDA607047000000100240E9
:1009800030B500210022002400232D4D6D6805F0B4
:100990000C0121B1042905D0082923D105E0294DF6
:1009A000056022E0274D05601FE0254D6D6805F4C8
:1009B0007012234D6D6805F48034022505EB9242D8
:1009C0001CB9214D554305600BE01D4D6D6805F4C4
:1009D00000351DB11C4D5543056002E0194D5543CE
:1009E000056002E0174D056000BF00BF144D6D6843
:1009F00005F0F0010909154D6B5C0568DD404560A7
:100A00000F4D6D6805F4E061090A104D6B5C456897
:100A1000DD4085600A4D6D6805F46051C90A0B4DD3
:100A20006B5C4568DD40C560054D6D6805F440416F
:100A3000890B074D6B5CC568B5FBF3F5056130BDEF
:100A40000010024000127A0000093D00540000200E
:100A500064000020704710B500F002F810BD0000DF
:100A60000CB50020019000903348006840F48030BD
:100A70003149086000BF3048006800F40030009041
:100A80000198401C0190009818B90198B0F5A06F2A
:100A9000F1D12948006800F4003010B10120009025
:100AA00001E0002000900098012843D1234800680D
:100AB00040F01000214908600846006820F003005B
:100AC00008600846006840F0020008601A48406864
:100AD000194948600846406848600846406840F444
:100AE000806048600846406820F47C1048600846F2
:100AF000406840F4E81048600846006840F08070A4
:100B0000086000BF0C48006800F000700028F9D0B1
:100B10000948406820F003000749486008464068DB
:100B200040F00200486000BF0348406800F00C003D
:100B30000828F9D10CBD000000100240002002403E
:100B4000042808D14FF0E021096941F004014FF079
:100B5000E022116107E04FF0E021096921F0040172
:100B60004FF0E022116170477047000010B5134844
:100B7000006840F0010011490860084640681049CB
:100B800008400E494860084600680E4908400B4975
:100B900008600846006820F4802008600846406825
:100BA00020F4FE0048604FF41F008860FFF753FFF9
:100BB0004FF000600449086010BD000000100240C2
:100BC0000000FFF8FFFFF6FE08ED00E010B5012180
:100BD000064800F091F820B105480068401C04491F
:100BE00008600121014800F078F810BD00040040C1
:100BF0000000002030B589B005460C4601210220D6
:100C0000FFF77EFE01211120FFF79AFE01212848FF
:100C1000FFF7A2FD4020ADF8200018208DF823003A
:100C200003208DF8220008A92248FFF709FD681E5D
:100C300080B2ADF81800601E80B2ADF8140000203C
:100C4000ADF81A00ADF8160005A91B4800F0C8F869
:100C500001221146184800F060F81D208DF80000B0
:100C600000208DF8010003208DF8020001208DF88E
:100C700003006846FFF7F0FD6020ADF80400012096
:100C8000ADF806000020ADF80C0001A90A4800F0FC
:100C90004DF80821084800F095F80121064800F0B9
:100CA0001FF800221146044800F008F809B030BDD2
:100CB000000C1A00001001400004004030B5002371
:100CC00001248C40A3B2048C9C430484048C02FA5B
:100CD00001F5ADB22C43048430BDCA430282704793
:100CE00021B1028842F00102028004E002884FF63E
:100CF000FE731A400280704730B502460020002380
:100D00000024158A05EA0103958905EA010413B157
:100D10000CB1012000E0002030BD1AB183890B43E3
:100D2000838102E083898B438381704770B50024FF
:100D300000220023058C4FF6FE7635400584028C98
:100D40008388048B4FF68F752C40B51E2C400D8880
:100D50002C43751E2A400D892A434D882A43144D81
:100D6000A8420BD0134DA84208D0134DA84205D07D
:100D7000124DA84202D0124DA84213D14FF6F7757A
:100D80002A404D892A434FF6FB752A408D882A4315
:100D90004FF6FF652B404FF6FF552B408D892B43B7
:100DA000CD892B4383800483CD888586028470BDE2
:100DB000002C01400034014000400140004401404B
:100DC000004801400A460021018B4FF6F773194095
:100DD0001143018370470185828270478186704785
:100DE000002202881D4B98420ED01D4B98420BD01A
:100DF000B0F1804F08D01B4B984205D01A4B984257
:100E000002D01A4B984204D14FF68F731A404B8888
:100E10001A43174B984207D0164B984204D04FF60E
:100E2000FF431A40CB881A4302808B8883850B8846
:100E300003850A4B98420BD0094B984208D00E4BC1
:100E4000984205D00D4B984202D00D4B984201D1EB
:100E50000B7A03860123838270470000002C014037
:100E6000003401400004004000080040000C004035
:100E700000100040001400400040014000440140C8
:100E800000480140064B1A6801464B1C03B1491C3F
:100E900000BF034B1B689B1A8B42FAD370470000BC
:100EA0000000002010B5044604EB4401C1EBC4115E
:100EB0004FF6FF7202EA810000F0D2FA04EB44011F
:100EC000C1EBC4114FF6FF7202EA810000F0C8FACC
:100ED00010BD000010B540F22441144800F0E0F8C5
:100EE00080B112480088C4B21048001D0088C4B206
:100EF00001200F4908700F48FFF72EFAC0F12000BB
:100F00000D49087040F22661084800F0C9F860B148
:100F100040F22661054800F051F8002105481438D8
:100F2000FFF768F901200549087010BD003801403D
:100F30001C000020580002401D0000201E00002060
:100F400010B516480078012820D1002013490870F8
:100F500000F01CFC082212491248FFF729F918B9C1
:100F60000120114908700DE0062210490D48FFF7D5
:100F70001FF918B901200E49087003E021210D481E
:100F800000F014FC20210748FFF707F90A48007811
:100F9000012802D100200849087010BD1C00002063
:100FA00021000020680000201F00002029000020F0
:100FB000200000202F0000201E00002010B500227D
:100FC000002340F66A14A14200D100BF0A12012496
:100FD0009440A3B2DC43048010BD21B1828942F465
:100FE0000052828104E082894DF6FF731A408281AB
:100FF00070471AB1838A0B43838202E0838A8B4352
:101000008382704710B504462048844209D10121EB
:101010008803FFF7A5FC00214FF48040FFF7A0FCF8
:1010200032E01B48844209D101214804FFF778FCD3
:1010300000214FF40030FFF773FC25E0154884428F
:1010400009D101218804FFF76BFC00214FF48020B7
:10105000FFF766FC18E01048844209D10121C8045A
:10106000FFF75EFC00214FF40020FFF759FC0BE076
:101070000A48844208D101210805FFF751FC0021EC
:101080004FF48010FFF74CFC10BD00000038014009
:101090000044004000480040004C00400050004028
:1010A00070B50246002400230025002040F66A1691
:1010B000B14200D100BFC1F3421501F01F03012668
:1010C00006FA03F3012D02D19689334006E0022D82
:1010D00002D1168A334001E0968A33400C12012671
:1010E00006FA04F41688344013B10CB1012000E074
:1010F000002070BDF0B50346002400260025002026
:1011000040F66A17B94200D100BF1846C1F3421435
:1011100001F01F06012707FA06F5012C01D10C305A
:1011200004E0022C01D1103000E014301AB107683D
:101130002F43076002E00768AF430760F0BD00007F
:101140002DE9F04786B005460E460024A24600BFB2
:10115000A1460027B08900B100BF2F462C8A4CF66B
:10116000FF700440F08804432C82AC894EF6F310E3
:101170000440B08831890843718908430443AC8135
:10118000AC8A4FF6FF400440B0890443AC8201A80A
:10119000FFF7F6FB1F48874202D1DDF810A001E0FF
:1011A000DDF80CA0A88900F4004040B10AEBCA00A9
:1011B00000EB0A1031684900B0FBF1F807E00AEBD8
:1011C000CA0000EB0A1031688900B0FBF1F8642016
:1011D000B8FBF0F004012009642101FB1089A88903
:1011E00000F4004040B1322000EBC900B0FBF1F048
:1011F00000F00700044308E0322000EB09106421EE
:10120000B0FBF1F000F00F0004432C8106B0BDE804
:10121000F08700000038014000B591B03C48FFF76E
:10122000F1FE01218803FFF78BFB4FF4E1300D90B5
:101230000020ADF840000C20ADF83E000020ADF8D5
:101240003C00ADF83A00ADF838000DA93048FFF782
:1012500077FF01212E48FFF7C0FE01208DF83300F3
:1012600000208DF831008DF8320025208DF83000F7
:101270000CA8FFF7F1FA012240F226612448FFF79B
:1012800039FF012240F224412148FFF733FF214872
:10129000FEF7BCFF1F481430FEF7B8FF01210846D7
:1012A000FFF71EFB20200490002003900B901A48AB
:1012B0000290002008908020069000200990144899
:1012C000001D01900020079005904FF400500A90F7
:1012D00001A910481430FFF743F8002004901020B3
:1012E00003900E48029001A90A48FFF739F801223D
:1012F000C0210748FFF77DFE012106481430FEF7A4
:1013000079FF00210348FEF775FF11B000BD000012
:10131000003801404400024068000020880000209E
:1013200008B501210420FFF70BFB18208DF80300FE
:101330004FF40070ADF8000003208DF802006946FC
:101340000748FFF77DF948208DF803004FF48060CF
:10135000ADF8000069460248FFF772F908BD0000C9
:101360000008014000BFFEE702E008C8121F08C1E4
:10137000002AFAD170477047002001E001C1121F16
:10138000002AFBD17047000010B5002421480078E6
:1013900000283DD031E000224FF461511E48FFF794
:1013A0001AFD41F288311C48FFF718FD0122002187
:1013B0001948FFF783FC0120FFF764FD0022114666
:1013C0001548FFF77BFC01224FF4E1511248FFF76B
:1013D00002FD41F288311048FFF700FD0122002193
:1013E0000D48FFF76BFC0220FFF75CFD0022114661
:1013F0000948FFF763FC601CC4B2032CCBDB00245C
:10140000012248210448FFF7E6FC0020014908704A
:1014100010BD0000200000200004004010B56FF057
:101420000400FFF78DFB0A4800680A49B0FBF1F0A1
:10143000094908700846007800EB4001C1EBC01074
:101440004FF6FF7101EAC0000449088010BD00009A
:101450000800002000127A005000002052000020F6
:101460000146114A12884A434FF0E0235A61002294
:101470009A611A46126942F001021A6100BF4FF0E8
:10148000E022106900F001021AB100F48032002A53
:10149000F5D04FF0E022126922F001024FF0E02374
:1014A0001A6100229A6170475200002010B5012194
:1014B0000F48FFF799F902210D48FFF797F904212A
:1014C0000B48FFF791F908210948FFF78FF9102120
:1014D0000748FFF78BF920210548FFF787F94021DE
:1014E0000348FFF781F980210148FFF77FF910BD1C
:1014F0000018014010B508212A48FFF777F910219C
:101500002848FFF773F93220FFF7BCFC0421254877
:10151000FFF76CF920212348FFF768F93220FFF725
:10152000B1FC02211F48FFF761F940211D48FFF778
:101530005DF93220FFF7A6FC01211A48FFF756F9A2
:1015400080211848FFF752F9C820FFF79BFC0121C2
:101550001448FFF749F980211248FFF745F9642044
:10156000FFF790FC02210F48FFF73EF940210D489C
:10157000FFF73AF96420FFF785FC04210948FFF7DB
:1015800033F920210748FFF72FF96420FFF77AFC91
:1015900008210448FFF728F910210248FFF724F931
:1015A00010BD00000018014010B508213A48FFF7AF
:1015B0001DF910213848FFF719F9092137A000F06B
:1015C000F5F83220FFF75EFC04213348FFF70EF9EF
:1015D00020213148FFF70AF9092133A000F0E6F88D
:1015E0003220FFF74FFC02212B48FFF7FFF8402184
:1015F0002948FFF7FBF809212EA000F0D7F8322088
:10160000FFF740FC01212448FFF7F0F88021224831
:10161000FFF7ECF809212AA000F0C8F8C820FFF76E
:1016200031FC01211C48FFF7DFF880211A48FFF741
:10163000DBF80A2125A000F0B9F86420FFF722FCAE
:1016400002211548FFF7D0F840211348FFF7CCF8E6
:101650000A2121A000F0AAF86420FFF713FC04215E
:101660000D48FFF7C1F820210B48FFF7BDF80A210C
:101670001CA000F09BF86420FFF704FC082106483A
:10168000FFF7B2F810210448FFF7AEF80A2118A0BE
:1016900000F08CF810BD00000018014044342C44C8
:1016A00035204F4E0000000044332C4436204F4E6E
:1016B0000000000044322C4437204F4E0000000050
:1016C00044312C4438204F4E0000000044312C445B
:1016D00038204F464600000044322C4437204F4605
:1016E0004600000044332C4436204F46460000009C
:1016F00044342C4435204F464600000010B50446C3
:101700004FF47F412046FFF773F810BDFFF786F8CE
:10171000FFF784FEFFF770F8FEF700FF482142F262
:101720001070FFF767FAFFF7FBFDFFF775FD26E086
:1017300013480088012802D002281AD102E0FFF7DE
:10174000B5FE17E00F48007850B10F48FFF7D6FFFD
:10175000FFF72AFF00200A4908800A49087007E0BD
:101760000948FFF7CBFFFFF7C5FE002004490880BA
:1017700000E000BF00BFFFF7E3FBFFF705FED7E780
:10178000040000201F0000200018014010B50021B7
:101790000548FEF72FFD20210348FEF7FFFD01213C
:1017A0000148FEF727FD10BD5800024070B5044601
:1017B0000D4605B970BD202D01D9202000E0284636
:1017C000064600BF0C48FEF7C7FD0028FAD124B139
:1017D000324621460948FEF7C7FC00210648FEF7BD
:1017E00009FD31460448FEF7D9FD01210248FEF704
:1017F00001FD00BFDEE70000440002408800002039
:10180000201800080000002068000000681300088D
:1018100088180008680000204004000078130008C1
:10182000000000000000000000A24A0400000000C8
:101830000000000001020304060708090000000080
:10184000006D6F6E69746F7200616C61726D006320
:101850006F6D6D616E64206572726F7220706C6561
:1018600061736520696E70757420616769616E00CF
:101870000000000000000000010203040102030454
:0818800006070809020406082E
:0400000508000131BD
:00000001FF
